:020000040800F2
:100000000000022025230008CD040008CF040008CA
:10001000D1040008D3040008D50400080000000043
:10002000000000000000000000000000D1160008E1
:10003000D70400080000000071170008D904000868
:100040007523000875230008752300087523000830
:100050007523000875230008752300087523000820
:100060007523000875230008752300087523000810
:100070007523000875230008752300087523000800
:1000800075230008752300087523000875230008F0
:1000900075230008752300087523000875230008E0
:1000A00075230008752300087523000875230008D0
:1000B00075230008752300087523000875230008C0
:1000C00075230008752300087523000875230008B0
:1000D00075230008752300087523000875230008A0
:1000E0007523000875230008000000007523000830
:1000F0007523000875230008752300087523000880
:10010000752300087523000875230008752300086F
:10011000752300087523000875230008752300085F
:10012000752300087523000875230008752300084F
:10013000752300087523000875230008752300083F
:1001400000000000000000000000000000000000AF
:10015000752300087523000875230008752300081F
:10016000752300087523000875230008752300080F
:1001700075230008752300087523000875230008FF
:1001800075230008752300087523000875230008EF
:1001900075230008752300087523000875230008DF
:1001A00075230008752300087523000875230008CF
:1001B00075230008752300087523000875230008BF
:1001C00075230008752300087523000875230008AF
:1001D000752300087523000875230008752300089F
:1001E000752300087523000875230008752300088F
:1001F000752300087523000875230008752300087F
:10020000752300087523000875230008752300086E
:10021000752300087523000875230008752300085E
:1002200075230008752300087523000800000000EE
:1002300075230008752300080000000075230008DE
:10024000752300087523000875230008752300082E
:10025000752300087523000875230008752300081E
:10026000752300087523000875230008752300080E
:10027000752300087523000875230008000000009E
:10028000752300087523000875230008000000008E
:080290000000000075230008C6
:1002A00010B5054C237833B9044B13B10448AFF3B0
:1002B00000800123237010BD4404002000000000D2
:1002C0004425000808B5034B1BB103490348AFF3AD
:1002D000008008BD000000004804002044250008FC
:1002E00008B5012001F050F9FBE7000008B5012036
:1002F00001F04AF90821044800F054FB4FF4FA7069
:1003000000F0C4F9F3E700BF00100258034B03608C
:10031000034B0B6080231360704700BF680600200A
:100320006804002010B58EB0124C0DF11C0CA646CE
:10033000BEE80F00ACE80F009EE807008CE807005D
:10034000002107A801F0EBF80B4B1860EE4604F112
:100350001C0CBCE80F00AEE80F009CE807008EE81C
:1003600007000021684601F0DAF8044B18600EB06F
:1003700010BD00BF5C25000864040020600400205C
:1003800030B587B00024019402940394049405943A
:100390000F4BD3F8E02042F01002C3F8E020D3F86E
:1003A000E03003F010030093009B0A4D2246082121
:1003B000284600F0F1FA08230193012302930394E5
:1003C0000223049301A9284600F0D6F907B030BDF6
:1003D000004402580010025872B6FEE700B59DB006
:1003E0004C22002109A801F0EBFF2022002101A8E6
:1003F00001F0E6FF022000F0DFFA002300931E4B1D
:10040000DA6A22F00102DA62DB6A03F00103009388
:100410001A4A936923F4404343F4804393619369F8
:1004200003F440430093009B144B9B6913F4005F5B
:10043000FAD00223099301230C9340230D93002348
:10044000129309A800F0E2FA88B93F230193002330
:100450000293039304930593069307930893012152
:1004600001A800F007FF20B91DB05DF804FBFFF7FD
:10047000B3FFFFF7B1FF00BF000400580048025867
:1004800008B500F0C3F8FFF7A9FFFFF779FFFFF702
:1004900049FF01F03FF8FEE700B583B00A4BD3F8FF
:1004A000F42042F00202C3F8F420D3F8F43003F051
:1004B00002030193019B00220F216FF0010000F065
:1004C00011F903B05DF804FB00440258FEE7FEE7B3
:1004D000FEE7FEE7FEE7704708B500F0C5F801F05B
:1004E00011FF012800D108BD01F074F9FBE70000FD
:1004F000274AD2F8883043F47003C2F88830254B7D
:100500001B6803F00F03062B06D8224A136823F05A
:100510000F0343F0070313601F4B1A6842F00102F8
:100520001A6000221A6119681C4A0A401A60194BA5
:100530001B6813F0080F06D0164A136823F00F0348
:1005400043F007031360144B00229A61DA611A62C8
:10055000134999621349D962134919635A6399631C
:10056000DA6319645A64196821F4802119601A66E3
:100570000E4B1A680E4B1340B3F1005F03D20D4BC4
:100580000122C3F808210C4B43F2D2021A607047D3
:1005900000ED00E000200052004402587FEDF6EA32
:1005A000000202020000FF01800201010010005C55
:1005B0000000FFFF0080005100400052104B1B78EC
:1005C0000BB90120704710B504464FF47A70B0FBA8
:1005D000F3F30C4A1068B0FBF3F000F0B9F868B917
:1005E0000F2C01D901200AE0002221464FF0FF30F4
:1005F00000F078F8044B1C60002000E0012010BDE2
:1006000008000020000000200C00002010B503208E
:1006100000F056F800F034FD0F498B69C3F3032353
:100620000E4AD35C03F01F03D8408B6903F00F031D
:10063000D35C03F01F0320FA03F3094A1360094B4C
:1006400018600F20FFF7BAFF10B10124204610BD3B
:100650000446FFF721FFF9E700440258AC250008E3
:100660000400002000000020034B1B78034A11689F
:100670000B441360704700BF08000020BC06002038
:10068000014B1868704700BFBC06002038B504460F
:10069000FFF7F6FF0546B4F1FF3F02D0044B1B788D
:1006A0001C44FFF7EDFF401BA042FAD338BD00BF4A
:1006B00008000020014B1868000C70470010005C17
:1006C0000649CB6823F4E0631B041B0C000200F412
:1006D000E0600343024A1A43CA60704700ED00E03D
:1006E0000000FA0500B5174BDB68C3F30223C3F122
:1006F000070CBCF1040F28BF4FF0040C03F1040EEB
:10070000BEF1060F14D9033B4FF0FF3E0EFA0CFC6E
:1007100021EA0C0199400EFA03F322EA030319437C
:10072000002807DB0901C9B2074B19545DF804FB27
:100730000023E9E700F00F000901C9B2034B195487
:10074000F4E700BF00ED00E000E400E014ED00E09D
:100750000138B0F1807F0BD24FF0E0235861054A99
:10076000F02182F823100020986107221A61704757
:100770000120704700ED00E0F0B583B000236BE08E
:1007800085685E000324B44025EA0405CC68B440C3
:100790002C438460446824EA0C0C4C68C4F30014B5
:1007A0009C4044EA0C04446068E0DD08083550F8D9
:1007B000256003F007044FEA840C0F2404FA0CF4BC
:1007C00026EA040E0C6904FA0CF444EA0E0440F81C
:1007D00025406BE0092400E0002404FA0EF42C43C9
:1007E0000CF1020C694D45F82C404FF0B0442568DF
:1007F000D44325EA02064F6817F4801F01D042EA6D
:1008000005064FF0B0452E606D6804EA05064F6896
:1008100017F4001F01D042EA05064FF0B0456E60A4
:10082000D5F8845004EA05064F6817F4003F01D05C
:1008300042EA05064FF0B045C5F88460D5F880500F
:100840002C404E6816F4803F01D042EA05044FF078
:10085000B042C2F8804001330A6832FA03F400F073
:1008600092804FF0010C0CFA03FC1CEA0202F2D059
:100870004C6804F00304013C012C81D94C6804F05D
:100880000304032C0CD0C4685D004FF0030C0CFA79
:1008900005FC24EA0C0C8C68AC4044EA0C04C460EF
:1008A0004C6804F00304022C3FF47FAF04684FEA65
:1008B000430E4FF0030C0CFA0EFC24EA0C0C4C68AF
:1008C00004F0030404FA0EF444EA0C0404604C68D7
:1008D00014F4403FBFD02E4CD4F8F45045F002053C
:1008E000C4F8F450D4F8F44004F002040194019CDC
:1008F0004FEA930C0CF10205244C54F8255003F0F8
:1009000003044FEA840E0F2404FA0EF425EA0405CA
:10091000204CA0423FF460AF04F58064A04222D096
:1009200004F58064A04220D004F58064A0421ED06B
:1009300004F58064A0421CD004F58064A0421AD063
:1009400004F58064A04218D004F58064A04216D05B
:1009500004F58064A04214D004F58064A0423FF402
:1009600039AF0A2439E7012437E7022435E70324A5
:1009700033E7042431E705242FE706242DE7072475
:100980002BE7082429E703B0F0BD00BF000400589E
:1009900000440258000002580AB1816170470904FE
:1009A00081617047436901EA030221EA030141EAD8
:1009B0000241816170470000134BDB6813F0040FA4
:1009C00007D1114BDB6803F0070383421AD00120E3
:1009D000704710B50C4AD36823F007031843D06062
:1009E000FFF74EFE0446084B5B6813F4005F07D127
:1009F000FFF746FE001BB0F57A7FF4D9012000E036
:100A0000002010BD0020704700480258002800F068
:100A1000188338B50446036813F0010F25D0944AB3
:100A2000136903F03803926A102B15D0182B0FD0DE
:100A30006368B3F5803F3FD0002B53D18C4B1A68CD
:100A400022F480321A601A6822F480221A6038E098
:100A500002F00302022AEBD1854B1B6813F4003F1E
:100A600003D06368002B00F0EE82236813F0020FBE
:100A700000F0A1807E4A1369926A13F038035AD0BD
:100A8000182B55D0E368002B00F0DE8078490A6807
:100A900022F0190213430B60FFF7F2FD0546744B79
:100AA0001B6813F0040F40F0AD80FFF7E9FD401B19
:100AB0000228F4D90320CDE26D4A136843F4803351
:100AC000136063682BB3FFF7DBFD0546684B1B68BB
:100AD00013F4003FC9D1FFF7D3FD401B6428F5D9BB
:100AE0000320B7E2B3F5A02F09D0614B1A6822F4B6
:100AF00080321A601A6822F480221A60E1E75C4BA7
:100B00001A6842F480221A601A6842F480321A602D
:100B1000D7E7FFF7B5FD0546554B1B6813F4003FBB
:100B2000A3D0FFF7ADFD401B6428F5D9032091E267
:100B300012F0030FA6D14E4B1B6813F0040F03D025
:100B4000E368002B00F08182494A136823F01903FF
:100B5000E1680B431360FFF793FD0546444B1B68A8
:100B600013F0040F06D1FFF78BFD401B0228F5D9C7
:100B700003206FE2FFF79EFD41F20303984212D873
:100B80002269402A07D03A494B6823F47C3343EA70
:100B900002334B600FE0364A536823F47C3343F44E
:100BA0000033536007E0324A536823F0FE43216963
:100BB00043EA01635360236813F0100F00F088804C
:100BC0002B4A136903F03803926A082B56D0182B6E
:100BD00050D0E369002B00F0B880254A136843F039
:100BE00080031360FFF74CFD0546214B1B6813F48F
:100BF000807F40F08880FFF743FD401B0228F4D936
:100C0000032027E2FFF756FD41F20303984212D872
:100C10002269402A07D016494B6823F47C3343EA03
:100C200002334B60C7E7124A536823F47C3343F422
:100C300000335360BFE70E4A536823F0FE43216937
:100C400043EA01635360B6E7094A136823F00103DE
:100C50001360FFF715FD0546054B1B6813F0040FE5
:100C6000A9D0FFF70DFD401B0228F5D90320F1E1C3
:100C70000044025802F00302012AAAD1A14B1B68CA
:100C800013F4807F03D0E369802B40F0E081FFF70D
:100C900011FD41F20303984212D8226A202A07D09C
:100CA00098494B6823F0F84343EA82634B600FE0B6
:100CB000944A536823F0F84343F08043536007E0BD
:100CC000904AD36823F07C53216A43EA0163D360DE
:100CD000236813F0080F60D06369002B49D0894A5C
:100CE000536F43F001035367FFF7CAFC0546854B7A
:100CF0005B6F13F0020F50D1FFF7C2FC401B0228BC
:100D0000F5D90320A6E1FFF7D5FC41F20303984291
:100D100012D8226A202A07D07A494B6823F0F84378
:100D200043EA82634B60D3E7764A536823F0F84383
:100D300043F080435360CBE7724AD36823F07C537F
:100D4000216A43EA0163D360C2E76E4A136823F065
:100D500080031360FFF794FC05466A4B1B6813F48D
:100D6000807FB5D0FFF78CFC401B0228F5D903200B
:100D700070E1644A536F23F001035367FFF780FC6F
:100D80000546604B5B6F13F0020F06D0FFF778FC4F
:100D9000401B0228F5D903205CE1236813F0200FE3
:100DA00029D0A3699BB1574A136843F48053136059
:100DB000FFF766FC0546534B1B6813F4005F1AD11E
:100DC000FFF75EFC401B0228F5D9032042E14D4AA3
:100DD000136823F480531360FFF752FC0546494B18
:100DE0001B6813F4005F06D0FFF74AFC401B022883
:100DF000F5D903202EE1236813F0040F21D1636A93
:100E0000002B00F026813F4A126902F03802182AAE
:100E100000F0EE80022B79D03A4A136823F08073F9
:100E20001360FFF72DFC0446364B1B6813F0007F60
:100E300000F0DC80FFF724FC001B0228F4D903201B
:100E400008E1314A136843F480731360FFF718FC1C
:100E500005462D4B1B6813F4807F06D1FFF710FC6D
:100E6000401B6428F5D90320F4E0A368012B0AD0C5
:100E70000BBB244B1A6F22F001021A671A6F22F083
:100E800004021A6704E01F4A136F43F0010313675B
:100E9000A36833B3FFF7F4FB05461A4B1B6F13F03F
:100EA000020FACD1FFF7ECFB401B41F288339842B4
:100EB000F3D90320CEE0052B09D0124B1A6F22F094
:100EC00001021A671A6F22F004021A67E0E70D4B5D
:100ED0001A6F42F004021A671A6F42F001021A6791
:100EE000D6E7FFF7CDFB0546064B1B6F13F0020F4D
:100EF00085D0FFF7C5FB401B41F288339842F3D9F8
:100F00000320A7E00044025800480258594A1368D9
:100F100023F080731360FFF7B3FB0546554B1B6846
:100F200013F0007F06D0FFF7ABFB401B0228F5D97A
:100F300003208FE04F4B996A4F4A0A40A16AE06A4A
:100F400041EA00110A439A62226B013AC2F3080295
:100F5000616B0139490289B20A43A16B0139090465
:100F600001F4FE010A43E16B0139090601F0FE417B
:100F70000A431A63DA6A22F00102DA62596B3F4AC5
:100F80000A40A16C42EAC1025A63DA6A22F00C02FA
:100F9000216C0A43DA62DA6A22F00202616C0A43C7
:100FA000DA62DA6A42F48032DA62DA6A42F40032F1
:100FB000DA62DA6A42F48022DA62DA6A42F0010224
:100FC000DA621A6842F080721A60FFF759FB044631
:100FD000284B1B6813F0007F06D1FFF751FB001B65
:100FE0000228F5D9032035E0002033E0002031E06D
:100FF000204A916A106B012B2DD001F00303A26AE5
:1010000093422AD1C1F30511E36A994227D1C0F373
:101010000802236B013B9A4223D1C0F34622636B43
:10102000013B9A421FD1C0F30642A36B013B9A4297
:101030001BD1C0F30660E36B013B984217D100203F
:1010400008E001207047012004E0012002E00120B7
:1010500000E0002038BD0120FCE70120FAE7012074
:10106000F8E70120F6E70120F4E70120F2E701208C
:10107000F0E700BF004402580CFCFFFF0700FFFF31
:10108000744B1B6903F03803102B00F0DE80182B23
:1010900010D00BB1704870476E4B1B6813F0200FD7
:1010A00000F0D5806B4B1868C0F3C1006B4B23FA7E
:1010B00000F0704710B4674A916A01F00301946A26
:1010C000C4F30510D36A03F0010C536BC3F3CC03D4
:1010D0000CFB03F307EE903AF8EE677A14F47C7F8A
:1010E00000F09380012965D0022900F09180E1B1E0
:1010F00007EE100AF8EE476A9FED596A86EE267AE7
:10110000544B1B6BC3F3080306EE903AF8EE666A85
:101110009FED546A67EE867A76EEA77AF7EE006A5C
:1011200077EEA67A27EE277A60E0136813F0200F97
:1011300023D011461268C2F3C102484BD34007EED8
:10114000103AF8EE476A07EE100AB8EE476A86EEE4
:10115000867A0B6BC3F3080306EE903AF8EE666AE4
:101160009FED406A67EE867A76EEA77AF7EE006A20
:1011700077EEA67A27EE277A38E007EE100AF8EE27
:10118000476A9FED396A86EE267A324B1B6BC3F3B2
:10119000080306EE903AF8EE666A9FED326A67EE53
:1011A000867A76EEA77AF7EE006A77EEA67A27EED1
:1011B000277A1BE007EE100AF8EE476A9FED286ACF
:1011C00086EE267A234B1B6BC3F3080306EE903A98
:1011D000F8EE666A9FED236A67EE867A76EEA77A66
:1011E000F7EE006A77EEA67A27EE277A194B1B6B8B
:1011F000C3F34623013307EE903AF8EE677AC7EE61
:10120000276AFCEEE67A17EE900A5DF8044B704709
:1012100007EE100AF8EE476A9FED146A86EE267A0A
:101220000C4B1B6BC3F3080306EE903AF8EE666AAC
:101230009FED0C6A67EE867A76EEA77AF7EE006A83
:1012400077EEA67A27EE277AD0E709487047034859
:10125000704700BF0044025800093D000090D003D1
:101260000024744A000000390024744C20BCBE4B9A
:1012700040787D01002800F0328170B50D460446AB
:101280009B4B1B6803F00F038B420BD2984A1368E9
:1012900023F00F030B431360136803F00F038B421B
:1012A00040F01F81236813F0040F0CD02269914B8A
:1012B0009B6903F070039A4205D98E498B6923F02C
:1012C00070031A438A61236813F0080F0CD0626917
:1012D000884BDB6903F070039A4205D98549CB69D5
:1012E00023F070031A43CA61236813F0100F0CD067
:1012F000A269804BDB6903F4E0639A4205D97D491A
:10130000CB6923F4E0631A43CA61236813F0200F0A
:101310000CD0E269774B1B6A03F070039A4205D93F
:1013200074490B6A23F070031A430A62236813F0AE
:10133000020F0CD0E2686F4B9B6903F00F039A42D7
:1013400005D96C498B6923F00F031A438A6123681E
:1013500013F0010F41D0674A936923F47063A168C9
:101360000B4393616368022B0AD0032B27D0012B18
:101370002CD0604A126812F0040F06D10120ADE0B3
:10138000126812F4003F00F0AE805A490A6922F058
:10139000070213430B61FFF773F90646554B1B69B0
:1013A00003F038036268B3EBC20F16D0FFF768F999
:1013B000801B41F288339842F0D903208EE04D4AD9
:1013C000126812F0007FE0D1012087E0494A1268DC
:1013D00012F4807FD9D1012080E0236813F0020F3E
:1013E0000CD0E268434B9B6903F00F039A4205D28D
:1013F00040498B6923F00F031A438A613C4B1B68F9
:1014000003F00F03AB420AD9394A136823F00F03E4
:101410002B431360136803F00F03AB4265D12368BD
:1014200013F0040F0CD02269324B9B6903F0700358
:101430009A4205D22F498B6923F070031A438A61BF
:10144000236813F0080F0CD062692A4BDB6903F0A4
:1014500070039A4205D22749CB6923F070031A43DF
:10146000CA61236813F0100F0CD0A269214BDB690D
:1014700003F4E0639A4205D21E49CB6923F4E0638A
:101480001A43CA61236813F0200F0CD0E269194B8C
:101490001B6A03F070039A4205D216490B6A23F0C7
:1014A00070031A430A62FFF7EBFD12498B69C3F31D
:1014B0000323114AD35C03F01F03D8408B6903F068
:1014C0000F03D35C03F01F0320FA03F30B4A1360EE
:1014D0000B4B18600B4B1868FFF770F870BD0120BC
:1014E00070470120FAE70120F8E70120F6E700BF86
:1014F0000020005200440258AC25000804000020DF
:10150000000000200C000020842801D00330704728
:101510000020704708B500F039FD002008BD2DE916
:10152000F04387B004460F464569BDB18669AEB148
:10153000D0F80480D0F80090B0F90800FFF7E4FF7D
:101540000296019500903B4622694946404600F0CC
:10155000ADFC0590059807B0BDE8F0836568266886
:10156000D4F81080B4F90800FFF7CEFF05AB019363
:1015700000903B461FFA88F23146284600F0D1FC25
:101580000128E7D00020E6E708B500B9012000F007
:1015900047FE002008BD00F1080343604FF0FF3212
:1015A0008260C3600361002303607047002303610E
:1015B000704743684B609A688A605160996008611F
:1015C000036801330360704730B40D68B5F1FF3F25
:1015D00011D000F108031C465B681A68AA42FAD9C8
:1015E00063684B6099608C606160086103680133D7
:1015F000036030BC70470469F2E7036941688268A0
:101600008A60416851605A68824206D000220261B5
:101610001A68013A1A601868704782685A60F5E7DC
:1016200082B0002301930D4B1B68B3F1FF3F08D03C
:101630004FF0500383F31188BFF36F8FBFF34F8FC9
:10164000FEE74FF0500383F31188BFF36F8FBFF3B2
:101650004F8F019B002BFCD002B070471000002080
:1016600008480068006880F308884FF0000080F3A5
:10167000148862B661B6BFF34F8FBFF36F8F00DF80
:1016800000BF000008ED00E0DFF80C00016841F445
:10169000700101607047000088ED00E04FF080733A
:1016A00040F8043C21F0010140F8081C054B40F8CB
:1016B0000C3C40F8202C6FF0020340F8243C4438E6
:1016C000704700BF21160008000000000000000065
:1016D000074B19680868B0E8F04F80F30988BFF33A
:1016E0006F8F4FF0000080F311887047AFF30080D8
:1016F000E84200204FF0500383F31188BFF36F8F4F
:10170000BFF34F8F0B4A136801331360012B00D0D6
:1017100070474FF0E023D3F8043D13F0FF0FF7D0EC
:101720004FF0500383F31188BFF36F8FBFF34F8FD8
:10173000FEE700BF10000020094B1B6843B94FF0C3
:10174000500383F31188BFF36F8FBFF34F8FFEE712
:10175000013B034A13600BB983F31188704700BF44
:101760001000002000000000000000000000000049
:10177000EFF30980BFF36F8F154B1A681EF0100F3F
:1017800008BF20ED108A20E9F04F10602DE9090014
:101790004FF0500080F31188BFF34F8FBFF36F8F6E
:1017A00000F064FD4FF0000080F3118809BC196857
:1017B0000868B0E8F04F1EF0100F08BFB0EC108AB8
:1017C00080F30988BFF36F8F704700BFAFF30080CD
:1017D000E842002008B54FF0500383F31188BFF3AF
:1017E0006F8FBFF34F8F00F013FC28B14FF0E02351
:1017F0004FF08052C3F8042D002383F3118808BDF5
:101800004FF0E022002313619361054B1B680549EB
:10181000A1FB03139B09013B53610723136170472D
:1018200000000020D34D62104FF0E023D3F8002DCC
:101830003D4B9A421CD04FF0E023D3F8002D3B4B98
:101840009A421ED030B583B0394B1A78D2B2019289
:10185000FF221A701B78DBB28DF803309DF803303D
:1018600003F05003334A1370334B07221A601BE016
:101870004FF0500383F31188BFF36F8FBFF34F8F87
:10188000FEE74FF0500383F31188BFF36F8FBFF370
:101890004F8FFEE7284A1368013B13609DF8033021
:1018A0005B00DBB28DF803309DF8033013F0800F3E
:1018B000F0D1214B1B68032B08D04FF0500383F36A
:1018C0001188BFF36F8FBFF34F8FFEE71B021A4AD9
:1018D000136003F4E0631360019BDBB2144A1370DE
:1018E0004FF0E024D4F8203D43F47003C4F8203DC9
:1018F000D4F8203D43F07043C4F8203DFFF780FF4B
:1019000000250E4B1D60FFF7BFFED4F8343F43F0B7
:101910004043C4F8343FFFF7A3FE00F0A7FCFFF7F5
:101920007FFE284603B030BD71C20F4170C20F4127
:1019300000E400E0C0060020C406002010000020E3
:10194000124A12F0070F1ED0D11D21F00701C1F578
:10195000705313440A460E4802600021416013444C
:10196000083B23F007030B48036059601960991A7C
:1019700051601360084B1960084B1960084B4FF019
:1019800000421A6070474FF47053E4E7CC06002021
:10199000E0420020C8060020D4420020D0420020AF
:1019A000CC420020164B1A461B688342FBD3516879
:1019B00002EB010C844509D0416800EB010C634542
:1019C00009D00360904219D010607047406801440C
:1019D00051601046F0E710B40A4C2468A3420BD0C3
:1019E0005B681944416013681B680360904200D033
:1019F00010605DF8044B70470460F7E7704700BF64
:101A0000E0420020C806002070B5054600F0F8FA54
:101A1000364B1B68A3B1364B1B681D424ED135B106
:101A2000083515F0070F02D025F007050835002D01
:101A300046D0304B1B68AB4251D32F4A146804E0A8
:101A4000FFF77EFFE7E722461C466368AB4202D2FF
:101A50002368002BF7D1254B1B68A34241D01668A1
:101A600008362368136063685B1B102B10D960195C
:101A700010F0070F08D04FF0500383F31188BFF325
:101A80006F8FBFF34F8FFEE743606560FFF78AFFFC
:101A9000626818490B689B1A0B60184909688B42E9
:101AA00001D216490B60124B1B681343636000237D
:101AB0002360134A13680133136002E0002600E03C
:101AC000002600F031FB16F0070F0CD04FF050034A
:101AD00083F31188BFF36F8FBFF34F8FFEE70026AC
:101AE000EFE70026EDE7304670BD00BFC8060020D6
:101AF000CC420020D0420020E0420020D44200200E
:101B0000D8420020002834D038B50446A0F108059A
:101B100050F8043C174A1268134208D14FF05003A2
:101B200083F31188BFF36F8FBFF34F8FFEE750F839
:101B3000081C41B14FF0500383F31188BFF36F8F3E
:101B4000BFF34F8FFEE723EA020340F8043C00F0A6
:101B500057FA54F8041C084A13680B4413602846CB
:101B6000FFF720FF054A13680133136000F0DCFA29
:101B700038BD7047CC420020D0420020DC4200201B
:101B8000084B1B681B6823B9074B4FF0FF321A60E4
:101B90007047044B1B68DB68DB685A68024B1A60AD
:101BA000704700BFEC420020C04300202DE9F04701
:101BB00007469846089DDDF824900A9C266B6FF036
:101BC0004043134406EB830626F0070600293AD06B
:101BD0008E464FF0000CBCF10F0F0BD81EF80C20F6
:101BE00004EB0C0383F834201EF80C3013B10CF115
:101BF000010CF0E7002384F84330062D00D90625B8
:101C0000E56265644FF0000AC4F848A0201DFFF7A4
:101C1000CDFC04F11800FFF7C9FC2461C5F10705EC
:101C2000A5616462C4F84CA084F850A042463946CD
:101C30003046FFF733FD2060B9F1000F01D0C9F83D
:101C40000040BDE8F087002384F83430D5E7000079
:101C500038B5002407E004EB840293000E481844D2
:101C6000FFF799FC0134062CF5D90C4D2846FFF7F7
:101C700092FC0B4C2046FFF78EFC0A48FFF78BFCCA
:101C80000948FFF788FC0948FFF785FC084B1D60F1
:101C9000084B1C6038BD00BFF44200209443002074
:101CA000A8430020CC430020F8430020E443002058
:101CB000EC420020F042002010B50446FFF71AFD68
:101CC000214A136801331360204B1B685BB1204B22
:101CD0001B686BB91D4B1B68DA6AE36A9A4207D826
:101CE0001A4B1C6004E0194B1C601368012B28D0B0
:101CF000184A136801331360E06A01238340164ACF
:101D000011680B43136000EB8000211D134B03EBA4
:101D10008000FFF74EFCFFF70FFD0D4B1B687BB1FA
:101D20000A4B1B68DA6AE36A9A4209D24FF0E02351
:101D30004FF08052C3F8042DBFF34F8FBFF36F8F66
:101D400010BDFFF785FFD3E780430020E842002065
:101D5000E04300208C43002090430020F442002008
:101D600010B5044690F8513063B1012B11D0022B0D
:101D70000ED04FF0500383F31188BFF36F8FBFF382
:101D80004F8FFEE7006BFFF7BDFE2046FFF7BAFE60
:101D900010BDFFF7B7FEFBE70F4B1B68D3B110B5C3
:101DA000FFF7A8FC0D4BDB68DC68201DFFF725FC66
:101DB0000B4A1368013B1360074A1368013B136029
:101DC000FFF7BAFC2046FFF7CBFF034B1B68002B45
:101DD000E6D110BD704700BF84430020F8430020C7
:101DE0008043002008B5FFF7D7FF074B1B68012B86
:101DF000F9D94FF0E0234FF08052C3F8042DBFF320
:101E00004F8FBFF36F8FEEE7F442002070B50446AA
:101E10000D461F4B1E681F4B18680430FFF7EDFB83
:101E200050B91C4B1B68DA6A012303FA02F21A4903
:101E30000B6823EA02030B60B4F1FF3F14BF0023D9
:101E40000123002D08BF00236BB93444114B1B68DC
:101E50005C60A6420ED9114B18680E4B196804310C
:101E6000FFF7B2FB70BD0B4B196804310C48FFF74C
:101E7000A0FBF7E70B4B1868064B19680431FFF716
:101E8000A3FB094B1B68A342ECD9074B1C60E9E795
:101E90000C440020E842002090430020F042002043
:101EA000E4430020EC420020C043002030B587B05E
:101EB0000B9C7CB10C9DB5B154250495049D542D0B
:101EC0001AD04FF0500383F31188BFF36F8FBFF325
:101ED0004F8FFEE74FF0500383F31188BFF36F8FEE
:101EE000BFF34F8FFEE74FF0500383F31188BFF32A
:101EF0006F8FBFF34F8FFEE7049D0C9D2C63022470
:101F000085F8514000240394029505AC01940A9C85
:101F10000094FFF74BFE0C98FFF7CEFE059807B034
:101F200030BD2DE9F04385B00746884614461E466D
:101F30009000FFF769FD00B381465420FFF764FD70
:101F40000546B0B1C0F83090E5B1002385F85130B6
:101F5000039302950D9B01930C9B009333462246FD
:101F600041463846FFF722FE2846FFF7A5FE01202E
:101F700005E04846FFF7C6FDE6E74FF0FF3005B045
:101F8000BDE8F0834FF0FF30F9E7000010B588B0EE
:101F900000240594069407AA06A905A8FEF7B6F939
:101FA000059B0293069B019300942346079A0E49D2
:101FB0000E48FFF77BFF0E4B186090B14FF05003B7
:101FC00083F31188BFF36F8FBFF34F8F094B4FF02F
:101FD000FF321A60084B01221A60084B1C60FFF7A1
:101FE00023FC08B010BD00BFBC250008E51D00089B
:101FF000BC430020C0430020E04300200C440020EC
:10200000024A136801331360704700BF8843002001
:10201000F8B53A4B1B68002B69D1394B1D68013567
:102020001D60C5B9374B1B681B6843B14FF05003A7
:1020300083F31188BFF36F8FBFF34F8FFEE7314AF1
:102040001168314B186810601960304A1368013309
:102050001360FFF795FD2E4B1B68AB423DD900275F
:102060002C4B1B68DB6A03EB83039A002A4B9B58BB
:10207000012B00D90127294B1B68002B3CD00127DD
:102080003AE001271F4B1B681B6843B31D4B1B68BD
:10209000DB68DC6863689D4226D3261D3046FFF767
:1020A000ACFAA36A1BB104F11800FFF7A6FAE36AC1
:1020B00001229A401A49086802430A6003EB83032D
:1020C0009A00314614481044FFF773FAE26A114B44
:1020D0001B68DB6A9A42D4D2D4E70027D2E70C4BC4
:1020E0004FF0FF321A60BBE7094A1360B8E70D4AA8
:1020F00013680133136000273846F8BD8843002079
:102100000C440020EC420020F0420020C443002098
:10211000C0430020E8420020F44200201044002088
:1021200090430020C843002038B5354B1B6843B9A5
:102130004FF0500383F31188BFF36F8FBFF34F8FBE
:10214000FEE7FFF7D7FA2E4B1A68013A1A601B68B0
:10215000002B4FD12B4B1B680BB900244BE0002404
:10216000294B1B681BB3284BDB68DC6804F11800A3
:10217000FFF743FA251D2846FFF73FFAE06A0123DF
:102180008340224A11680B43136000EB800029460C
:102190001F4B03EB8000FFF70CFAE26A1D4B1B6834
:1021A000DB6A9A42DCD31C4B01221A60D8E70CB1DF
:1021B000FFF7E6FC194B1C6884B9174B1C68D4B1B7
:1021C0004FF0E0234FF08052C3F8042DBFF34F8F40
:1021D000BFF36F8F01240EE0013C07D0FFF718FF1B
:1021E0000028F9D00C4B01221A60F5E70B4B0022B6
:1021F0001A60E2E70024FFF79FFA204638BD00BFCF
:102200008843002080430020CC43002090430020DE
:10221000F4420020E842002010440020C84300207F
:1022200010B5A8B10446104B1B6843B14FF05003E2
:1022300083F31188BFF36F8FBFF34F8FFEE7FFF774
:10224000DFFE00212046FFF7E1FDFFF76DFF48B9F3
:102250004FF0E0234FF08052C3F8042DBFF34F8FAF
:10226000BFF36F8F10BD00BF88430020204B1B6859
:102270001BB1204B01221A6070471E4B00221A60CE
:102280001D4B1B68B3FA83F3DBB2C3F11F0303EBEF
:1022900083018A0019498A5842B94FF0500383F3E9
:1022A0001188BFF36F8FBFF34F8FFEE7134903EB26
:1022B000830082000A4450684068506003EB830C3E
:1022C0004FEA8C0208321144884209D003EB8303A1
:1022D0009A000A4B13445B68DA68094B1A6070472E
:1022E000406862469100054A0A445060EEE700BF2C
:1022F000884300201044002090430020F442002036
:10230000E8420020054B1B6833B1054B1B680BB13D
:10231000002070470220704701207047E0430020F2
:1023200088430020DFF834D0FEF7E2F80C480D496E
:102330000D4A002302E0D458C4500433C4188C4220
:10234000F9D30A4A0A4C002301E013600432A24286
:10235000FBD300F011F8FEF793F87047000002205D
:102360000000002044040020D4250008440400207C
:1023700018440020FEE7000070B50D4E0D4D761B91
:10238000B61006D0002455F8043B01349847A64205
:10239000F9D1094E094D761B00F0D4F8B61006D0DD
:1023A000002455F8043B01349847A642F9D170BD8A
:1023B000C8250008C8250008D0250008C825000841
:1023C000830730B548D0541E002A3FD0CAB2034616
:1023D00001E0013C3AD303F8012B9D07F9D1032C0E
:1023E0002DD9CDB245EA05250F2C45EA054536D94C
:1023F000A4F1100222F00F0C03F1200EE6444FEA84
:10240000121C03F1100242E9045542E90255103250
:102410007245F8D10CF1010214F00C0F03EB02121B
:1024200004F00F0C13D0ACF1040323F003030433C6
:10243000134442F8045B9342FBD10CF003042CB12B
:10244000CAB21C4403F8012B9C42FBD130BD644648
:102450001346002CF4D1F9E703461446BFE71A46A9
:10246000A446E0E7024B13B1024800F005B87047FC
:102470000000000085240008002301461A46184683
:1024800000F01AB838B5084B084D5B1B9C1007D0FC
:10249000043B1D44013C55F804399847002CF9D100
:1024A000BDE8384000F054B8D4250008D025000815
:1024B000704700BF704700BF2DE9F047DFF880A0EC
:1024C0000646DAF8000098460F469146FFF7F0FFFF
:1024D0001A4B1B68D3F8484124B365681F2D26DCCE
:1024E0005EB96B1C0235DAF80000636044F82570B1
:1024F000FFF7E0FF0020BDE8F08704EB8501012332
:10250000C1F88890D4F88821AB401A43022EC4F851
:102510008821C1F80881E4D1D4F88C211343C4F890
:102520008C31DEE703F5A674C3F84841D5E7DAF845
:102530000000FFF7BFFF4FF0FF30DCE7C4250008C5
:1025400040040020F8B500BFF8BC08BC9E467047A8
:0C255000F8B500BFF8BC08BC9E46704700
:10255C0094250008ED0200080000000000000000B7
:10256C00800000000000000000000000A025000812
:10257C00E1020008FDFF00000000000080000000E8
:10258C00000000000000000064656661756C745406
:10259C0061736B004C45445461736B303200000026
:1025AC0000000000010203040102030406070809ED
:0C25BC0049444C450000000018000020BD
:0825C80065240008C5020008AB
:0425D000A10200085C
:1025D4000090D0030090D003010000001000000020
:1025E400AAAAAAAA00000000000000000403002018
:1025F4006C030020D4030020000000000000000051
:1026040000000000000000000000000000000000C6
:1026140000000000000000000000000000000000B6
:1026240000000000000000000000000000000000A6
:102634000000000000000000000000000000000096
:102644000000000000000000000000000000000086
:102654000000000000000000000000000000000076
:102664000000000000000000000000000000000066
:102674000000000000000000000000000000000056
:102684000000000000000000000000000000000046
:1026940001000000000000000E33CDAB34126DE6E3
:1026A400ECDE05000B00000000000000000000004C
:1026B4000000000000000000000000000000000016
:1026C4000000000000000000000000000000000006
:1026D40000000000000000000000000000000000F6
:1026E40000000000000000000000000000000000E6
:042A14001444002046
:0400000508002325A7
:00000001FF
