:020000040800F2
:1000000000000220F92F0008C10D0008C30D0008F0
:10001000C50D0008C70D0008C90D0008000000004C
:10002000000000000000000000000000CB0D0008F0
:10003000CD0D000800000000CF0D0008D10D000814
:1000400049300008493000084930000849300008AC
:10005000493000084930000849300008493000089C
:10006000493000084930000849300008493000088C
:10007000493000084930000849300008493000087C
:10008000493000084930000849300008493000086C
:10009000493000084930000849300008493000085C
:1000A000493000084930000849300008493000084C
:1000B000493000084930000849300008493000083C
:1000C000493000084930000849300008493000082C
:1000D000493000084930000849300008493000081C
:1000E000493000084930000800000000493000088D
:1000F00049300008493000084930000849300008FC
:1001000049300008493000084930000849300008EB
:1001100049300008493000084930000849300008DB
:1001200049300008493000084930000849300008CB
:1001300049300008493000084930000849300008BB
:1001400000000000000000000000000000000000AF
:10015000493000084930000849300008493000089B
:10016000493000084930000849300008493000088B
:10017000493000084930000849300008493000087B
:10018000493000084930000849300008493000086B
:10019000493000084930000849300008493000085B
:1001A000493000084930000849300008493000084B
:1001B000493000084930000849300008493000083B
:1001C000493000084930000849300008493000082B
:1001D000493000084930000849300008493000081B
:1001E000493000084930000849300008493000080B
:1001F00049300008493000084930000849300008FB
:1002000049300008493000084930000849300008EA
:1002100049300008493000084930000849300008DA
:10022000493000084930000849300008000000004B
:10023000493000084930000800000000493000083B
:1002400049300008493000084930000849300008AA
:10025000493000084930000849300008493000089A
:10026000493000084930000849300008493000088A
:1002700049300008493000084930000800000000FB
:1002800049300008493000084930000800000000EB
:080290000000000049300008E5
:1002980010B5054C237833B9044B13B10448AFF3B8
:1002A80000800123237010BD3C09002000000000DD
:1002B8001832000808B5034B1BB103490348AFF3D4
:1002C800008008BD00000000400900201832000826
:1002D80080F0004002E000BF81F0004142001FBFF3
:1002E8005FEA410392EA030F7FEA226C7FEA236CFC
:1002F8006AD04FEA1262D2EB1363C1BFD2184140F1
:1003080048404140B8BF5B42192B88BF704710F086
:10031800004F40F4000020F07F4018BF404211F029
:10032800004F41F4000121F07F4118BF494292EA91
:10033800030F3FD0A2F1010241FA03FC10EB0C00BD
:10034800C3F1200301FA03F100F0004302D549424A
:1003580060EB4000B0F5000F13D3B0F1807F06D3F7
:1003680040084FEA310102F10102FE2A51D2B1F1EF
:10037800004F40EBC25008BF20F0010040EA0300E4
:100388007047490040EB0000013A28BFB0F5000F64
:10039800EDD2B0FA80FCACF1080CB2EB0C0200FA1A
:1003A8000CF0AABF00EBC25052421843BCBFD04069
:1003B8001843704792F0000F81F4000106BF80F4E3
:1003C80000000132013BB5E74FEA41037FEA226CA6
:1003D80018BF7FEA236C21D092EA030F04D092F071
:1003E800000F08BF0846704790EA010F1CBF0020A5
:1003F800704712F07F4F04D1400028BF40F0004002
:10040800704712F100723CBF00F50000704700F021
:10041800004343F0FE4040F4000070477FEA226248
:1004280016BF08467FEA23630146420206BF5FEA19
:10043800412390EA010F40F4800070474FF0000319
:1004480004E000BF10F0004348BF40425FEA000CE0
:1004580008BF704743F0964301464FF000001CE088
:1004680050EA010208BF70474FF000030AE000BFDE
:1004780050EA010208BF704711F0004302D540421C
:1004880061EB41015FEA010C02BF8446014600208E
:1004980043F0B64308BFA3F18053A3F50003BCFAA9
:1004A8008CF2083AA3EBC25310DB01FA02FC634456
:1004B80000FA02FCC2F12002BCF1004F20FA02F25D
:1004C80043EB020008BF20F00100704702F1200250
:1004D80001FA02FCC2F1200250EA4C0021FA02F2B1
:1004E80043EB020008BF20EADC7070474FF0FF0CB6
:1004F8001CEAD0521EBF1CEAD15392EA0C0F93EAB1
:100508000C0F6FD01A4480EA010C400218BF5FEA52
:1005180041211ED04FF0006343EA501043EA5111C5
:10052800A0FB01310CF00040B1F5000F3EBF4900BF
:1005380041EAD3715B0040EA010062F17F02FD2AC3
:100548001DD8B3F1004F40EBC25008BF20F00100A6
:10055800704790F0000F0CF0004C08BF49024CEABD
:10056800502040EA51207F3AC2BFD2F1FF0340EA4F
:10057800C250704740F400004FF00003013A5DDCC0
:1005880012F1190FDCBF00F000407047C2F1000201
:10059800410021FA02F1C2F1200200FA02FC5FEAEE
:1005A800310040F1000053EA4C0308BF20EADC7038
:1005B800704792F0000F00F0004C02BF400010F4AA
:1005C800000F013AF9D040EA0C0093F0000F01F057
:1005D800004C02BF490011F4000F013BF9D041EA79
:1005E8000C018FE70CEAD15392EA0C0F18BF93EA7B
:1005F8000C0F0AD030F0004C18BF31F0004CD8D1A5
:1006080080EA010000F00040704790F0000F17BF2B
:1006180090F0004F084691F0000F91F0004F14D071
:1006280092EA0C0F01D142020FD193EA0C0F03D1C9
:100638004B0218BF084608D180EA010000F00040CC
:1006480040F0FE4040F40000704740F0FE4040F4A7
:10065800400070474FF0FF0C1CEAD0521EBF1CEA46
:10066800D15392EA0C0F93EA0C0F69D0A2EB030264
:1006780080EA010C49024FEA402037D04FF08053FE
:1006880043EA111143EA10130CF000408B4238BFC3
:100698005B0042F17D024FF4000C8B4224BF5B1AD1
:1006A80040EA0C00B3EB510F24BFA3EB510340EA1F
:1006B8005C00B3EB910F24BFA3EB910340EA9C00CD
:1006C800B3EBD10F24BFA3EBD10340EADC001B013D
:1006D80018BF5FEA1C1CE0D1FD2A3FF650AF8B42E1
:1006E80040EBC25008BF20F0010070470CF0004CEE
:1006F8004CEA50207F32C2BFD2F1FF0340EAC25019
:10070800704740F400004FF00003013A37E792F0D9
:10071800000F00F0004C02BF400010F4000F013A37
:10072800F9D040EA0C0093F0000F01F0004C02BF32
:10073800490011F4000F013BF9D041EA0C0195E79B
:100748000CEAD15392EA0C0F08D142027FF47DAF34
:1007580093EA0C0F7FF470AF084676E793EA0C0F24
:1007680004D14B023FF44CAF08466EE730F0004C22
:1007780018BF31F0004CCAD130F000427FF45CAFB2
:1007880031F000437FF43CAF5FE700BF42000ED278
:10079800B2F1FE4F0BD34FF09E03B3EB126209D4B4
:1007A8004FEA002343F0004323FA02F070474FF06A
:1007B8000000704712F1610F01D1420202D14FF0DF
:1007C800FF3070474FF00000704700BF30B58BB066
:1007D800002405940694079408940994214BD3F8AF
:1007E800E02042F01002C3F8E020D3F8E02002F045
:1007F80010020192019AD3F8E02042F00402C3F8F3
:10080800E020D3F8E02002F004020292029AD3F822
:10081800E02042F08002C3F8E020D3F8E02002F0A4
:1008280080020392039AD3F8E02042F00202C3F850
:10083800E020D3F8E03003F002030493049B0A4D50
:1008480022460821284600F013FD082305930123BA
:1008580006930794089405A9284600F0F5FB0BB009
:1008680030BD00BF004402580010025808B51548B2
:10087800154B0360A3F13E53A3F57D23A3F2446314
:100888004360002383600122C26003614361836186
:10089800C361036200F076FE50B90021094800F0F8
:1008A800A4FF40B90021074800F0CDFF30B908BDCA
:1008B80000F056F8F1E700F053F8F3E700F050F8CD
:1008C800F5E700BF580900200054004010B5B6B045
:1008D8000446002131913291339134913591BC22F3
:1008E80002A802F0D3FB22681A4B9A4201D036B014
:1008F80010BD082302930DEB030001F097FE30BBF7
:10090800154CD4F8E03043F00203C4F8E030D4F8D2
:10091800E03003F002030093009BC02331931223BD
:1009280032930023339334930423359331A90B482E
:1009380000F08AFBD4F8E83043F40013C4F8E83038
:10094800D4F8E83003F400130193019BCFE700F0DB
:1009580007F8D5E700540040004402580004025844
:1009680072B6FEE700B59DB04C22002109A802F03E
:100978008DFB2022002101A802F088FB022000F054
:100988008FFF002300931E4BDA6A22F00102DA621D
:10099800DB6A03F0010300931A4A936923F4404386
:1009A80043F480439361936903F440430093009BAD
:1009B800144B9B6913F4005FFAD0022309930123B7
:1009C8000C9340230D930023129309A800F092FF83
:1009D80088B93F230193002302930393049305935B
:1009E800069307930893012101A801F0C9FB20B9D8
:1009F8001DB05DF804FBFFF7B3FFFFF7B1FF00BFC1
:100A0800000400580048025810B586B000F066FA95
:100A1800FFF7A8FFFFF7DAFEFFF728FF00F060F8FE
:100A280000F0E8F8164C022322460021084600F0A0
:100A3800E7F8012322460221002000F0E1F808230C
:100A480000220421104600F06BF9022302AA0621B5
:100A5800002000F0D5F84FF4FA6000F07FFA00F0BB
:100A6800C9F8084B0093072380220021084600F0AC
:100A78006DF94FF4FA6000F071FA00F0BBF8D1E7B5
:100A8800303200080000002000B587B08DF817004C
:100A980064230293012301930DF1170200920022AF
:100AA8007821034800F0CCFD07B05DF804FB00BFD7
:100AB8005809002000B587B08DF817006423029309
:100AC800012301930DF11702009240227821034877
:100AD80000F0B6FD07B05DF804FB00BF5809002020
:100AE80008B5642000F03AFAAE20FFF7CDFF2020C9
:100AF800FFF7CAFF1020FFF7C7FFB020FFF7C4FFBA
:100B0800C820FFF7C1FF0020FFF7BEFF1020FFF746
:100B1800BBFF4020FFF7B8FF8120FFF7B5FFFF209C
:100B2800FFF7B2FFA120FFF7AFFFA620FFF7ACFF4A
:100B3800A820FFF7A9FF3F20FFF7A6FFA420FFF793
:100B4800A3FFD320FFF7A0FF0020FFF79DFFD520CC
:100B5800FFF79AFFF020FFF797FFD920FFF794FFE0
:100B68002220FFF791FFDA20FFF78EFF1220FFF710
:100B78008BFFDB20FFF788FF2020FFF785FF8D2004
:100B8800FFF782FF1420FFF77FFFAF20FFF77CFFFE
:100B980008BD10B50446A1F15000C0B2FFF774FFBC
:100BA800200940F01000FFF76FFF04F00E0040F03E
:100BB8000100FFF769FF10BD70B50546002609E082
:100BC8002846FFF777FF0134E4B214F0800FF7D01E
:100BD8000136F6B2072E0CD8A6F15000C0B2FFF7C6
:100BE80053FF0020FFF750FF1020FFF74DFF0024B0
:100BF800EBE770BD08B50020FFF7DEFF08BD000079
:100C08002DE9F84306460F469046012B26D0022BC5
:100C18005AD0BDE8F88305EB45032D4A02EB4303A0
:100C2800185DFFF747FF0134E4B2052CF3D9063607
:100C3800F6B209F101095FFA89F918F80950002D8F
:100C4800E7D0203DEDB27E2E02D90137FFB2002653
:100C580039463046FFF79DFF0024E6E74FF00009CC
:100C6800EBE704EB05131B4AD05CFFF723FF0134C5
:100C7800E4B2072CF5D9791CC9B23046FFF789FFD1
:100C8800002408E004EB05130833124AD05CFFF790
:100C980011FF0134E4B2072CF4D90836F6B209F191
:100CA80001095FFA89F918F80950002DB1D0203DE3
:100CB800EDB2782E02D90137FFB200263946304608
:100CC800FFF767FF0024D4E74FF00009EBE700BF08
:100CD8003C32000864340008F8B507460E46540153
:100CE800FFF757FF002506E00C4B185DFFF7E2FE03
:100CF80001340135EDB20F2DF6D9711CC9B2384651
:100D0800FFF747FF002506E0044B185DFFF7D2FE0A
:100D180001340135EDB20F2DF6D9F8BD00040020DD
:100D28002DE9F04180460F4616461D46002409E08D
:100D3800A21908EB0410D2B23946C0B2FFF7CCFFB3
:100D48000134E4B2AC42F3D3BDE8F0812DE9F84FA9
:100D58008146884616469A460A9F4FF0000B0EE0D9
:100D68000BF1010517F80B00FFF7A4FE0134E4B2FC
:100D7800AB46B442F4D308F101085FFA88F8D045CD
:100D880005D241464846FFF704FF4C46F1E7BDE867
:100D9800F88F000082B0074BD3F8F42042F002022B
:100DA800C3F8F420D3F8F43003F002030193019B55
:100DB80002B0704700440258FEE7FEE7FEE7FEE790
:100DC800FEE770477047704708B500F0B5F808BDF2
:100DD800244B1B6803F00F03062B06D8214A13681F
:100DE80023F00F0343F0070313601F4B1A6842F008
:100DF80001021A6000221A6119681C4A0A401A6026
:100E0800184B1B6813F0080F06D0164A136823F016
:100E18000F0343F007031360134B00229A61DA6152
:100E28001A62134999621349D962134919635A63BB
:100E38009963DA6319645A64196821F48021196086
:100E48001A660E4B1A680E4B1340B3F1005F03D2BB
:100E58000C4B0122C3F808210B4B43F2D2021A6053
:100E6800704700BF00200052004402587FEDF6EAA8
:100E7800000202020000FF01800201010010005C74
:100E88000000FFFF0080005100400052104B1B780B
:100E98000BB90120704710B504464FF47A70B0FBC7
:100EA800F3F30C4A1068B0FBF3F000F0B9F868B936
:100EB8000F2C01D901200AE0002221464FF0FF3013
:100EC80000F078F8044B1C60002000E0012010BD01
:100ED80008050020000500200C05002010B503209F
:100EE80000F056F801F040F80F498B69C3F303236B
:100EF8000E4AD35C03F01F03D8408B6903F00F033D
:100F0800D35C03F01F0320FA03F3094A1360094B6B
:100F180018600F20FFF7BAFF10B10124204610BD5A
:100F28000446FFF737FFF9E700440258543A00082F
:100F38000405002000050020034B1B78034A1168B4
:100F48000B441360704700BF08050020A409002067
:100F5800014B1868704700BFA409002038B5044643
:100F6800FFF7F6FF0546B4F1FF3F02D0044B1B78AC
:100F78001C44FFF7EDFF401BA042FAD338BD00BF69
:100F880008050020014B1868000C70470010005C31
:100F98000649CB6823F4E0631B041B0C000200F431
:100FA800E0600343024A1A43CA60704700ED00E05C
:100FB8000000FA0500B5174BDB68C3F30223C3F141
:100FC800070CBCF1040F28BF4FF0040C03F1040E0A
:100FD800BEF1060F14D9033B4FF0FF3E0EFA0CFC8E
:100FE80021EA0C0199400EFA03F322EA030319439C
:100FF800002807DB0901C9B2074B19545DF804FB47
:101008000023E9E700F00F000901C9B2034B1954A6
:10101800F4E700BF00ED00E000E400E014ED00E0BC
:101028000138B0F1807F0BD24FF0E0235861054AB8
:10103800F02182F823100020986107221A61704776
:101048000120704700ED00E070B582B000236EE02B
:1010580085685E000324B44025EA0405CC68B440E2
:101068002C438460446824EA0C0C4C68C4F30014D4
:101078009C4044EA0C0444606CE0DD08083550F8F4
:10108800256003F007044FEA840C0F2404FA0CF4DB
:1010980026EA040E0C6904FA0CF444EA0E0440F83B
:1010A80025406FE0092400E0002404FA0EF42C43E4
:1010B8000CF1020C6B4D45F82C404FF0B0442568FC
:1010C800D44325EA0206D1F804C01CF4801F01D0DD
:1010D80042EA05064FF0B0452E606D6804EA050641
:1010E800D1F804C01CF4001F01D042EA05064FF0F5
:1010F800B0456E60D5F8845004EA0506D1F804C0FE
:101108001CF4003F01D042EA05064FF0B045C5F88F
:101118008460D5F880502C404E6816F4803F01D08A
:1011280042EA05044FF0B042C2F8804001330A6831
:1011380032FA03F400F093804FF0010C0CFA03FC30
:101148001CEA0202F2D04C6804F00304013C012CB2
:101158007FF67EAF4C6804F00304032C0CD0C468FF
:101168005D004FF0030C0CFA05FC24EA0C0C8C68AB
:10117800AC4044EA0C04C4604C6804F00304022C3C
:101188003FF47BAF04684FEA430E4FF0030C0CFAB0
:101198000EFC24EA0C0C4C6804F0030404FA0EF468
:1011A80044EA0C0404604C6814F4403FBED02E4C52
:1011B800D4F8F45045F00205C4F8F450D4F8F440DB
:1011C80004F002040194019C4FEA930C0CF102050F
:1011D800244C54F8255003F003044FEA840E0F24DE
:1011E80004FA0EF425EA0405204CA0423FF45CAF53
:1011F80004F58064A04222D004F58064A04220D087
:1012080004F58064A0421ED004F58064A0421CD07E
:1012180004F58064A0421AD004F58064A04218D076
:1012280004F58064A04216D004F58064A04214D06E
:1012380004F58064A0423FF435AF0A2435E7012461
:1012480033E7022431E703242FE704242DE705249C
:101258002BE7062429E7072427E7082425E702B017
:1012680070BD00BF00040058004402580000025836
:101278000AB18161704709048161704703689A69FE
:1012880012F0020F01D000229A6203689A6912F0E4
:10129800010F03D19A6942F001029A61704710B4B4
:1012A800019CC1F3090141EA02411943214321F09C
:1012B800004102685368640D04F4806444F07F744C
:1012C80044F4583444F47F7444F0030423EA0404D7
:1012D8002143516010BC70472DE9F0410446036872
:1012E8009F6917F010074ED00E4690461022DA611B
:1012F80000252368986910F0200F3DD1002D3BD1BF
:10130800B6F1FF3FF5D0FFF723FEA0EB0800B0428F
:1013180001D8002EEDD121684A6802F4804294F881
:101328004230DBB2886910F4004F04D0203B18BF6C
:10133800012302B9C3B923689B6913F0200FD8D1E0
:10134800FFF706FEA0EB08001928F4D9636C43F0F8
:1013580020036364202384F84130002384F842305A
:1013680084F840300125E6E74B6843F480434B603E
:10137800FFF7EEFD8046DEE7002D40D12022DA613E
:101388000427012500E000252268936913F4807F73
:1013980005D047F001074FF48071D161012513F49E
:1013A800806F06D047F0080722684FF48061D1614A
:1013B800012513F4007F24D047F0020723684FF477
:1013C8000072DA6101252046FFF758FF226853684A
:1013D80023F0FF7323F48B3323F4FF7323F001030B
:1013E8005360636C1F436764202384F841300023F3
:1013F80084F8423084F840302846BDE8F08104275C
:10140800C2E7002DF8D0DEE770B504460D46164653
:1014180023689B6913F0020F1DD1324629462046E6
:10142800FFF75AFFC8B9B5F1FF3FF1D0FFF790FDBC
:10143800801BA84201D8002DEAD1636C43F0200339
:101448006364202384F84130002384F8423084F810
:101458004030012000E0002070BD0120FCE72DE9AC
:10146800F0410646884617461D463468A46938EA9E
:1014780004030CBF4FF0010C4FF0000CBC4518D111
:10148800B5F1FF3FF1D0FFF763FD069BC01AA842F4
:1014980001D8002DE9D1736C43F020037364202335
:1014A80086F84130002386F8423086F84030012023
:1014B80000E00020BDE8F0812DE9F04182B004464B
:1014C80090461D46089E099F194B00934FF0807364
:1014D800EAB2FFF7E4FE3A4631462046FFF794FFAA
:1014E800F8B9012D0ED123685FFA88F29A62009745
:1014F8003346002280212046FFF7B1FFA8B902B089
:10150800BDE8F08123684FEA18229A623A463146CC
:101518002046FFF779FF30B923685FFA88F29A62AC
:10152800E5E70120EBE70120E9E70120E7E700BF55
:101538000020008070B505460C4616462B689B694E
:1015480013F0200F1AD1324621462846FFF7C4FE71
:10155800B0B9FFF7FDFC801BA04201D8002CEDD1EB
:101568006B6C43F020036B64202385F84130002323
:1015780085F8423085F84030012070BD0020FCE736
:101588000120FAE7002857D010B5044690F84130FA
:10159800002B41D0242384F841302268136823F0BB
:1015A800010313606368226823F070631361226883
:1015B800936823F400439360E368012B31D0A36858
:1015C800226843F404439360E368022B2FD0226817
:1015D80051681A4B0B4353602268D36823F40043C5
:1015E800D360236962691343A169226843EA01232E
:1015F800D360E369216A22680B4313602268136889
:1016080043F00103136000206064202384F8413014
:10161800206384F8420010BD80F84030FFF756F987
:10162800B8E7A368226843F400439360CCE72368D3
:101638004FF400625A60CAE7012070470080000238
:101648002DE9F04F83B00D46BDF834A00E9F90F8F9
:101658004110C9B2202940F0BC8004469046994602
:101668000C9BBAF1000F18BF002B16D090F8403031
:10167800012B00F0B2804FF0010B80F840B0FFF76B
:1016880067FC0646009019235A464FF4004120464D
:10169800FFF7E5FE30B101209CE04FF4007343648E
:1016A800012097E0212384F84130402384F8423018
:1016B800002363640C9A6262A4F82AA0636301960B
:1016C80000974B46424629462046FFF7F5FE70B97B
:1016D800638D9BB2FF2B0FD9FF2222850023009335
:1016E8004FF0807329462046FFF7D9FD21E00023FB
:1016F80084F8403058466DE0628D92B2228500230E
:1017080000934FF00073D2B229462046FFF7C7FD79
:101718000FE0628D92B22285002300934FF0007390
:10172800D2B229462046FFF7BAFD638D9BB2002B43
:1017380033D0324639462046FFF766FE00284ED1A0
:10174800626A236812789A62636A01336362638DFE
:101758009BB2013B9BB26385238D013B9BB22385E2
:10176800628D92B2002AE0D0002BDED100963B4673
:10177800002280212046FFF772FE90BB638D9BB24A
:10178800FF2BC6D9FF222285002300934FF08073D8
:1017980029462046FFF783FDC7E7324639462046EB
:1017A800FFF7C8FEF8B923682022DA6121684B6880
:1017B80023F0FF7323F48B3323F4FF7323F0010327
:1017C8004B6084F84120002384F8423084F840308C
:1017D80000E0022003B0BDE8F08F0220FAE7012004
:1017E800F8E70120F6E70120F4E790F84130DBB292
:1017F800202B24D190F84030012B22D0012380F8EF
:101808004030242380F841300268136823F0010334
:1018180013600268136823F4805313600268136826
:10182800194311600268136843F001031360202311
:1018380080F84130002380F8403018467047022075
:1018480070470220704790F84130DBB2202B22D13C
:1018580090F84030012B20D0012380F84030242319
:1018680080F841300268136823F0010313600268AE
:10187800136823F4706343EA012111600268136856
:1018880043F001031360202380F84130002380F8DF
:101898004030184670470220704702207047000009
:1018A800134BDB6813F0040F07D1114BDB6803F00F
:1018B800070383421AD00120704710B50C4AD36839
:1018C80023F007031843D060FFF742FB0446084B98
:1018D8005B6813F4005F07D1FFF73AFB001BB0F514
:1018E8007A7FF4D9012000E0002010BD0020704765
:1018F80000480258002800F0188338B504460368E9
:1019080013F0010F25D0944A136903F03803926A43
:10191800102B15D0182B0FD06368B3F5803F3FD03C
:10192800002B53D18C4B1A6822F480321A601A6843
:1019380022F480221A6038E002F00302022AEBD176
:10194800854B1B6813F4003F03D06368002B00F03D
:10195800EE82236813F0020F00F0A1807E4A13691B
:10196800926A13F038035AD0182B55D0E368002B2D
:1019780000F0DE8078490A6822F0190213430B60F0
:10198800FFF7E6FA0546744B1B6813F0040F40F0A6
:10199800AD80FFF7DDFA401B0228F4D90320CDE221
:1019A8006D4A136843F48033136063682BB3FFF701
:1019B800CFFA0546684B1B6813F4003FC9D1FFF7FF
:1019C800C7FA401B6428F5D90320B7E2B3F5A02F66
:1019D80009D0614B1A6822F480321A601A6822F41E
:1019E80080221A60E1E75C4B1A6842F480221A6090
:1019F8001A6842F480321A60D7E7FFF7A9FA054659
:101A0800554B1B6813F4003FA3D0FFF7A1FA401B06
:101A18006428F5D9032091E212F0030FA6D14E4BAA
:101A28001B6813F0040F03D0E368002B00F08182D9
:101A3800494A136823F01903E1680B431360FFF761
:101A480087FA0546444B1B6813F0040F06D1FFF7CD
:101A58007FFA401B0228F5D903206FE2FFF792FABC
:101A680041F20303984212D82269402A07D03A4922
:101A78004B6823F47C3343EA02334B600FE0364A69
:101A8800536823F47C3343F40033536007E0324A4D
:101A9800536823F0FE43216943EA016353602368D6
:101AA80013F0100F00F088802B4A136903F03803F5
:101AB800926A082B56D0182B50D0E369002B00F0FF
:101AC800B880254A136843F080031360FFF740FA93
:101AD8000546214B1B6813F4807F40F08880FFF790
:101AE80037FA401B0228F4D9032027E2FFF74AFA05
:101AF80041F20303984212D82269402A07D01649B6
:101B08004B6823F47C3343EA02334B60C7E7124A3D
:101B1800536823F47C3343F400335360BFE70E4A21
:101B2800536823F0FE43216943EA01635360B6E733
:101B3800094A136823F001031360FFF709FA054601
:101B4800054B1B6813F0040FA9D0FFF701FA401BDF
:101B58000228F5D90320F1E10044025802F00302FB
:101B6800012AAAD1A14B1B6813F4807F03D0E36933
:101B7800802B40F0E081FFF705FA41F20303984219
:101B880012D8226A202A07D098494B6823F0F843D4
:101B980043EA82634B600FE0944A536823F0F843AA
:101BA80043F08043536007E0904AD36823F07C53A6
:101BB800216A43EA0163D360236813F0080F60D0F9
:101BC8006369002B49D0894A536F43F00103536777
:101BD800FFF7BEF90546854B5B6F13F0020F50D136
:101BE800FFF7B6F9401B0228F5D90320A6E1FFF755
:101BF800C9F941F20303984212D8226A202A07D071
:101C08007A494B6823F0F84343EA82634B60D3E791
:101C1800764A536823F0F84343F080435360CBE798
:101C2800724AD36823F07C53216A43EA0163D36084
:101C3800C2E76E4A136823F080031360FFF788F940
:101C480005466A4B1B6813F4807FB5D0FFF780F90F
:101C5800401B0228F5D9032070E1644A536F23F032
:101C680001035367FFF774F90546604B5B6F13F088
:101C7800020F06D0FFF76CF9401B0228F5D90320A4
:101C88005CE1236813F0200F29D0A3699BB1574A60
:101C9800136843F480531360FFF75AF90546534B12
:101CA8001B6813F4005F1AD1FFF752F9401B022892
:101CB800F5D9032042E14D4A136823F48053136099
:101CC800FFF746F90546494B1B6813F4005F06D039
:101CD800FFF73EF9401B0228F5D903202EE12368BF
:101CE80013F0040F21D1636A002B00F026813F4ACC
:101CF800126902F03802182A00F0EE80022B79D01F
:101D08003A4A136823F080731360FFF721F90446F9
:101D1800364B1B6813F0007F00F0DC80FFF718F9E2
:101D2800001B0228F4D9032008E1314A136843F460
:101D380080731360FFF70CF905462D4B1B6813F4ED
:101D4800807F06D1FFF704F9401B6428F5D90320EA
:101D5800F4E0A368012B0AD00BBB244B1A6F22F0C6
:101D680001021A671A6F22F004021A6704E01F4A78
:101D7800136F43F001031367A36833B3FFF7E8F861
:101D880005461A4B1B6F13F0020FACD1FFF7E0F8B2
:101D9800401B41F288339842F3D90320CEE0052B4B
:101DA80009D0124B1A6F22F001021A671A6F22F03B
:101DB80004021A67E0E70D4B1A6F42F004021A6733
:101DC8001A6F42F001021A67D6E7FFF7C1F8054615
:101DD800064B1B6F13F0020F85D0FFF7B9F8401BB5
:101DE80041F288339842F3D90320A7E0004402580F
:101DF80000480258594A136823F080731360FFF7AC
:101E0800A7F80546554B1B6813F0007F06D0FFF76F
:101E18009FF8401B0228F5D903208FE04F4B996AA1
:101E28004F4A0A40A16AE06A41EA00110A439A62ED
:101E3800226B013AC2F30802616B0139490289B287
:101E48000A43A16B0139090401F4FE010A43E16B5D
:101E58000139090601F0FE410A431A63DA6A22F0E1
:101E68000102DA62596B3F4A0A40A16C42EAC10298
:101E78005A63DA6A22F00C02216C0A43DA62DA6ADF
:101E880022F00202616C0A43DA62DA6A42F48032B2
:101E9800DA62DA6A42F40032DA62DA6A42F48022FA
:101EA800DA62DA6A42F00102DA621A6842F0807293
:101EB8001A60FFF74DF80446284B1B6813F0007FA3
:101EC80006D1FFF745F8001B0228F5D9032035E0B5
:101ED800002033E0002031E0204A916A106B012B8A
:101EE8002DD001F00303A26A93422AD1C1F3051150
:101EF800E36A994227D1C0F30802236B013B9A4257
:101F080023D1C0F34622636B013B9A421FD1C0F331
:101F18000642A36B013B9A421BD1C0F30660E36BF8
:101F2800013B984217D1002008E0012070470120AA
:101F380004E0012002E0012000E0002038BD01207B
:101F4800FCE70120FAE70120F8E70120F6E7012085
:101F5800F4E70120F2E70120F0E700BF004402584F
:101F68000CFCFFFF0700FFFFF8B57E4B1B6903F071
:101F78003803102B00F0F280182B10D013B17A4CD4
:101F88002046F8BD774B1B6813F0200F00F0E8805F
:101F9800744B1868C0F3C100744CC440F0E7714B2F
:101FA8009D6A05F003059C6AC4F30514D86A00F01D
:101FB80001005B6BC3F3CC0303FB00F0FEF73EFAB2
:101FC8000646002CDCD0012D76D0022D00F0A4802E
:101FD8000DB32046FEF732FA01466548FEF73AFB94
:101FE8000446604B186BC0F30800FEF727FA054655
:101FF8004FF064513046FEF779FA01462846FEF75D
:102008006DF94FF07E51FEF769F901462046FEF75B
:102018006DFA044671E0534B1B6813F0200F29D06A
:10202800504F3B68C3F3C1035048D840FEF706FA47
:1020380005462046FEF702FA01462846FEF70AFB47
:102048000446386BC0F30800FEF7F8F905464FF070
:1020580064513046FEF74AFA01462846FEF73EF933
:102068004FF07E51FEF73AF901462046FEF73EFA58
:10207800044642E02046FEF7E1F901463D48FEF7F6
:10208800E9FA0446374B186BC0F30800FEF7D6F997
:1020980005464FF064513046FEF728FA01462846B7
:1020A800FEF71CF94FF07E51FEF718F9014620465D
:1020B800FEF71CFA044620E02046FEF7BFF9014669
:1020C8002B48FEF7C7FA0446264B186BC0F30800E6
:1020D800FEF7B4F905464FF064513046FEF706FAAC
:1020E80001462846FEF7FAF84FF07E51FEF7F6F85B
:1020F80001462046FEF7FAF904461A4B1B6BC3F358
:102108004623581CFEF79AF901462046FEF7A2FA24
:10211800FEF73CFB044633E72046FEF78FF90146FD
:102128001548FEF797FA04460E4B186BC0F30800E3
:10213800FEF784F905464FF064513046FEF7D6F9AC
:1021480001462846FEF7CAF84FF07E51FEF7C6F85A
:1021580001462046FEF7CAF90446CEE7074C0FE7CA
:10216800024C0DE70044025800093D000090D003DE
:102178000024744A0024744C20BCBE4B40787D0176
:10218800002800F0328170B50D4604469B4B1B6851
:1021980003F00F038B420BD2984A136823F00F0306
:1021A8000B431360136803F00F038B4240F01F8149
:1021B800236813F0040F0CD02269914B9B6903F03C
:1021C80070039A4205D98E498B6923F070031A432C
:1021D8008A61236813F0080F0CD06269884BDB69A9
:1021E80003F070039A4205D98549CB6923F070033F
:1021F8001A43CA61236813F0100F0CD0A269804BF0
:10220800DB6903F4E0639A4205D97D49CB6923F47D
:10221800E0631A43CA61236813F0200F0CD0E26907
:10222800774B1B6A03F070039A4205D974490B6A0D
:1022380023F070031A430A62236813F0020F0CD0CC
:10224800E2686F4B9B6903F00F039A4205D96C490A
:102258008B6923F00F031A438A61236813F0010F77
:1022680041D0674A936923F47063A1680B43936173
:102278006368022B0AD0032B27D0012B2CD0604A8D
:10228800126812F0040F06D10120ADE0126812F4B2
:10229800003F00F0AE805A490A6922F00702134352
:1022A8000B61FEF755FE0646554B1B6903F03803D4
:1022B8006268B3EBC20F16D0FEF74AFE801B41F2EC
:1022C80088339842F0D903208EE04D4A126812F004
:1022D800007FE0D1012087E0494A126812F4807F2C
:1022E800D9D1012080E0236813F0020F0CD0E268F6
:1022F800434B9B6903F00F039A4205D240498B690F
:1023080023F00F031A438A613C4B1B6803F00F0349
:10231800AB420AD9394A136823F00F032B431360E1
:10232800136803F00F03AB4265D1236813F0040F61
:102338000CD02269324B9B6903F070039A4205D294
:102348002F498B6923F070031A438A61236813F0BD
:10235800080F0CD062692A4BDB6903F070039A42BC
:1023680005D22749CB6923F070031A43CA61236851
:1023780013F0100F0CD0A269214BDB6903F4E06362
:102388009A4205D21E49CB6923F4E0631A43CA6115
:10239800236813F0200F0CD0E269194B1B6A03F075
:1023A80070039A4205D216490B6A23F070031A4348
:1023B8000A62FFF7D9FD12498B69C3F30323114A57
:1023C800D35C03F01F03D8408B6903F00F03D35C81
:1023D80003F01F0320FA03F30B4A13600B4B18603A
:1023E8000B4B1868FEF752FD70BD012070470120A5
:1023F800FAE70120F8E70120F6E700BF00200052C5
:1024080000440258543A0008040500200005002042
:102418000C050020404B9B6A03F00303032B79D083
:1024280070B505460E463C4A136823F08063136076
:10243800FEF78EFD0446384B1B6813F0006F06D07C
:10244800FEF786FD031B022BF5D9032070BD324B26
:102458009A6A22F47C32296842EA01329A626A68EE
:10246800013AC2F30802A9680139490289B20A434C
:10247800E9680139090401F4FE010A4329690139AF
:10248800090601F0FE410A439A63DA6A22F0C002A3
:1024980069690A43DA62DA6A22F02002A9690A4302
:1024A800DA62DA6A22F01002DA62D96B1B4A0A4051
:1024B800E96942EAC102DA63DA6A42F01002DA62D2
:1024C800C6B91A46DB6A43F40023D362124A13687A
:1024D80043F080631360FEF73BFD04460E4B1B6818
:1024E80013F0006F14D1FEF733FD001B0228F5D955
:1024F8000320ABE7012E05D0074AD36A43F4001343
:10250800D362E3E7044AD36A43F48013D362DDE776
:1025180000209BE701207047004402580700FFFF96
:10252800404B9B6A03F00303032B79D070B5054633
:102538000E463C4A136823F080531360FEF708FDEB
:102548000446384B1B6813F0005F06D0FEF700FD09
:10255800031B022BF5D9032070BD324B9A6A22F077
:102568007C72296842EA01529A626A68013AC2F3A7
:102578000802A9680139490289B20A43E9680139A0
:10258800090401F4FE010A4329690139090601F029
:10259800FE410A431A64DA6A22F4406269690A430E
:1025A800DA62DA6A22F40072A9690A43DA62DA6A3C
:1025B80022F48072DA62596C1B4A0A40E96942EADD
:1025C800C1025A64DA6A42F48072DA62C6B91A46FB
:1025D800DB6A43F48003D362124A136843F08053E2
:1025E8001360FEF7B5FC04460E4B1B6813F0005F42
:1025F80014D1FEF7ADFC001B0228F5D90320ABE788
:10260800012E05D0074AD36A43F08073D362E3E70B
:10261800044AD36A43F40003D362DDE700209BE752
:1026280001207047004402580700FFFFF8B5044630
:10263800036813F0006F30D0436EB3F5001F26D047
:102648000ED8EBB1B3F5801F07D102210430FFF794
:10265800E1FE054645B12E4621E0012635461EE03D
:10266800B3F5401F09D10025954A136D23F4401393
:10267800616E0B431365002611E0012635460EE016
:102688008F4AD36A43F40033D3620025ECE7022172
:102698002430FFF745FF0546DCE70026354623686A
:1026A80013F4807F14D0636D042B30D8DFE803F077
:1026B800032228080800824AD36A43F40033D3620D
:1026C80045BB7F4A136D23F00703616D0B43136508
:1026D800236813F4007F2FD0A36D802B49D01ED818
:1026E800002B40D0402B17D10021201DFFF792FE70
:1026F800054619E00021201DFFF78CFE0546DFE79F
:10270800002104F12400FFF70BFF0546D8E7012656
:102718003546DDE72E46DBE7012635460CE0C02BC3
:1027280002D0B3F5807F1BD155BB654A136D23F4E6
:10273800E073A16D0B431365236813F4806F45D0D4
:10274800D4F8A430B3F5800F38D01ED883B3B3F5CE
:10275800001F17D10021201DFFF75CFE05461AE077
:1027680001263546E8E7564AD36A43F40033D36274
:10277800DAE7002104F12400FFF7D2FE0546D3E78B
:102788002E46D9E70126354620E0B3F5C00F02D022
:10279800B3F5000F09D1C5B9494A936D23F4600315
:1027A800D4F8A4100B43936510E0012635460DE0DC
:1027B800434AD36A43F40033D362ECE7002104F1BF
:1027C8002400FFF7ADFE0546E5E72E46236813F41F
:1027D800006F23D0D4F8A830B3F1007F41D00DD8D2
:1027E800002B38D0B3F1807F05D10021201DFFF7E1
:1027F80011FE054608E0012635460FE0B3F1407F9B
:1028080002D0B3F1806F23D1002D31D12C4A936DC2
:1028180023F0E063D4F8A8100B439365236813F002
:10282800007F2ED0A36C202B3FD026D833B1102B9D
:1028380020D1234AD36A43F40033D362002D3AD11E
:102848001F4AD36C23F03003A16C0B43D36418E008
:1028580001263546E2E71A4AD36A43F40033D362C5
:10286800D2E7002104F12400FFF75AFE0546CBE722
:102878002E46D3E70126354603E0302BDED001266D
:102888003546236813F4805F2BD0E36DB3F5005F02
:102898004CD017D8002B43D0B3F5805F0DD1002161
:1028A800201DFFF7B7FD054612E00221201DFFF7A6
:1028B800B1FD0546C2E72E46E3E70126354610E09E
:1028C80000440258B3F5405F02D0B3F5804F24D1DD
:1028D800002D32D1754A136D23F4E043E16D0B43AB
:1028E8001365236813F4005F37D0236EB3F5003FF8
:1028F80051D027D83BB1B3F5803F20D10121201D0D
:10290800FFF788FD0546002D4CD1684A136D23F466
:10291800E023216E0B4313651FE001263546E0E7EF
:10292800624AD36A43F40033D362D1E7002104F149
:102938002400FFF7F5FD0546CAE72E46D1E7012634
:1029480035460AE0B3F5802FDDD0B3F5A02FDAD0F5
:10295800B3F5403FD7D001263546236813F4804F9E
:1029680030D0D4F8AC30B3F1005F44D01FD83BB1BD
:10297800B3F1805F18D10121201DFFF74BFD0546FB
:10298800002D3FD1494A936D23F0E043D4F8AC10B1
:102998000B43936516E0012104F12400FFF7C0FD05
:1029A8000546B0E72E46D8E7012635460AE0B3F1DA
:1029B800804FE5D0B3F1A04FE2D0B3F1405FDFD054
:1029C80001263546236813F4004F09D0E36EB3F1AE
:1029D800805F19D0B3F1005F24D0D3B1012635460A
:1029E800236813F0807F32D0636C032B59D8DFE85B
:1029F80003F026215226012104F12400FFF790FD5F
:102A08000546BDE72E46DDE7284AD36A43F400337E
:102A1800D3626DB9254A136D23F04053E16E0B4321
:102A28001365DDE70121201DFFF7F4FC0546F0E7FB
:102A38002E46D5E71D4AD36A43F40033D3629DBBC3
:102A48001A4AD36C23F00303616C0B43D3642368E5
:102A580013F4800F2CD1236813F0010F00F0A3802A
:102A6800A36F282B00F29D80DFE803F08B9B9B9BD4
:102A78009B9B9B9B869B9B9B9B9B9B9B949B9B9BBA
:102A88009B9B9B9B8B9B9B9B9B9B9B9B8B9B9B9BAE
:102A98009B9B9B9B8B000221201DFFF7BBFC0546DF
:102AA800CDE701263546D2E72E46D0E70044025846
:102AB8008F4A136843F480731360FEF749FA074698
:102AC8008B4B1B6813F4807F05D1FEF741FAC01BBE
:102AD8006428F5D90325002D4AD1864B1B6FD4F8FD
:102AE800B020534013F4407F0CD0824B1A6F22F46D
:102AF8004072196F41F480311967196F21F48031E0
:102B080019671A67D4F8B030B3F5807F15D08DBB3C
:102B1800D4F8B03003F44072B2F5407F1ED0754A45
:102B2800136923F47C53136172490B6FD4F8B020F6
:102B3800C2F30B0213430B678DE7FEF709FA07464A
:102B48006C4B1B6F13F0020FE1D1FEF701FAC01BAB
:102B580041F288339842F3D90325D8E765480269DA
:102B680022F47C52644901EA131313430361DBE73F
:102B78002E4670E72E466EE70121201DFFF74AFC1E
:102B88000546E5B95B4A536D23F03803A16F0B4343
:102B9800536508E0012104F12400FFF7C1FC054654
:102BA800EFE701263546236813F0020F16D0636F4E
:102BB800052B27D8DFE803F00A051F0A0A0A2E4664
:102BC800F1E70121201DFFF725FC0546EDB9494A2B
:102BD800536D23F00703616F0B435365236813F0AC
:102BE800040F22D0D4F89030052B43D8DFE803F047
:102BF800140F3B141414012104F12400FFF790FC76
:102C08000546E3E701263546E8E72E46E6E70121D3
:102C1800201DFFF7FFFB05467DBB364A936D23F069
:102C28000703D4F890100B439365236813F0200F23
:102C380033D0D4F88C30B3F1005F4CD022D83BB1FC
:102C4800B3F1805F1BD10021201DFFF7E3FB054690
:102C5800002D47D1274A536D23F0E043D4F88C1058
:102C68000B43536519E0012104F12400FFF758FCD8
:102C78000546D1E701263546D7E72E46D5E7012692
:102C880035460AE0B3F1804FE2D0B3F1A04FDFD070
:102C9800B3F1405FDCD001263546236813F0400FBE
:102CA80037D0D4F89830B3F5006F52D026D83BB15E
:102CB800B3F5806F18D10021201DFFF7ABFB054647
:102CC800002D4DD10B4A936D23F4E053D4F898109E
:102CD8000B4393651DE0022104F12400FFF720FC5B
:102CE8000546B5E72E46D8E70126354611E000BF70
:102CF8000048025800440258CFFFFF00B3F5805F38
:102D0800DED0B3F5A05FDBD0B3F5406FD8D0012695
:102D18003546236813F0800F32D0D4F89C30B3F5D1
:102D2800804F00F09D8020D83BB1B3F5005F19D1EA
:102D38000021201DFFF76EFB0546002D40F097800F
:102D4800A54A936D23F46043D4F89C100B43936514
:102D580016E0022104F12400FFF7E2FB0546AFE785
:102D68002E46D6E7012635460AE0B3F5004FE4D0F3
:102D7800B3F5204FE1D0B3F5C04FDED0012635467C
:102D8800236813F0080F0CD0D4F88030B3F5805FB7
:102D98006FD0914A536D23F44053D4F880100B43FD
:102DA8005365236813F0100F0CD0D4F89430B3F5A2
:102DB800807F67D0884A936D23F44073D4F89410C9
:102DC8000B439365236813F4002F0BD0D4F8A0307D
:102DD800B3F5803F6ED0B3F5003F61D0002B5AD0D9
:102DE80001263546236813F4802F0CD0D4F884309C
:102DF800B3F5001F76D0B3F5401F69D0B3F5801F37
:102E080061D001263546236813F4803F07D0E36C70
:102E1800002B70D0B3F5803F7BD001263546236860
:102E280013F0005F7DD1236813F4003F00F0868023
:102E3800E36FB3F5807F00F0C6807CD9B3F5007FDF
:102E480003D0B3F5407F40F0BC80002D40F0C18036
:102E5800614A536D23F44073E16F0B4353656DE092
:102E6800022104F12400FFF75BFB054665E72E46C7
:102E780086E7022104F12400FFF752FB002888D0DE
:102E8800012686E7022104F12400FFF749FB002808
:102E980090D001268EE70021201DFFF7BBFA0546DA
:102EA8007DB94D4A936D23F44033D4F8A0100B43F9
:102EB800936597E7022104F12400FFF731FB0546EB
:102EC800EEE72E468EE7444AD36A43F40033D362D2
:102ED8007DB9414A536D23F44013D4F884100B4351
:102EE800536590E7012104F12400FFF719FB05461B
:102EF800EEE72E4687E7384AD36A43F40033D362B5
:102F08006DB9354AD36C23F48033E16C0B43D36439
:102F180085E70221201DFFF77DFA0546F0E72E46DA
:102F28007DE7022104F12400FFF7FAFA00283FF4B4
:102F38007AAF012677E7002B87D00126236813F4A0
:102F4800801F06D0244A136D23F00043216F0B43E2
:102F58001365236813F0805F07D01F4A136923F4B1
:102F68008043D4F8B4100B431361236813F4001F93
:102F780006D0194A136D23F08073A16E0B431365B5
:102F8800236813F0804F09D0134B1A6922F40042CA
:102F98001A611A69D4F8B8100A431A612368002B19
:102FA8001CDB236813F4000F07D00B4A536D23F47E
:102FB8004003D4F888100B43536506B10126304608
:102FC800F8BD0126BAE7044AD36A43F40033D36252
:102FD8003BE72E46B2E700BF00440258034AD36CD1
:102FE80023F04053216D0B43D364DAE700440258C1
:102FF800DFF834D0FDF7ECFE0C480D490D4A0023EC
:1030080002E0D458C4500433C4188C42F9D30A4A95
:103018000A4C002301E013600432A242FBD300F003
:1030280011F8FDF7F1FC70470000022000000020B5
:103038003C090020743A00083C090020AC09002033
:10304800FEE7000070B50D4E0D4D761BB61006D08C
:10305800002455F8043B01349847A642F9D1094E9B
:10306800094D761B00F0D4F8B61006D0002455F8A8
:10307800043B01349847A642F9D170BD683A00086C
:10308800683A0008703A0008683A0008830730B5C3
:1030980048D0541E002A3FD0CAB2034601E0013C82
:1030A8003AD303F8012B9D07F9D1032C2DD9CDB2C2
:1030B80045EA05250F2C45EA054536D9A4F1100245
:1030C80022F00F0C03F1200EE6444FEA121C03F124
:1030D800100242E9045542E9025510327245F8D10E
:1030E8000CF1010214F00C0F03EB021204F00F0CA8
:1030F80013D0ACF1040323F003030433134442F860
:10310800045B9342FBD10CF003042CB1CAB21C44FB
:1031180003F8012B9C42FBD130BD64461346002CBA
:10312800F4D1F9E703461446BFE71A46A446E0E798
:10313800024B13B1024800F005B8704700000000C8
:1031480059310008002301461A46184600F01AB8FB
:1031580038B5084B084D5B1B9C1007D0043B1D4439
:10316800013C55F804399847002CF9D1BDE838409E
:1031780000F054B8743A0008703A0008704700BF6D
:10318800704700BF2DE9F047DFF87CA00646DAF863
:10319800000098460F469146FFF7F0FF1B4B1B684F
:1031A800D3F8484124B365681F2D26DC5EB96B1C33
:1031B8000235DAF80000636044F82570FFF7E0FF95
:1031C8000020BDE8F08704EB85010123C1F8889051
:1031D800D4F88821AB401A43022EC4F88821C1F8DC
:1031E8000881E4D1D4F88C211343C4F88C31DEE78C
:1031F80003F5A674C3F84841D5E7DAF80000FFF7ED
:10320800BFFF4FF0FF30DCE738090020643A0008C0
:10321800F8B500BFF8BC08BC9E467047F8B500BFBB
:08322800F8BC08BC9E4670478B
:1032300048656C6C6F20776F726C64000000000052
:1032400000000000002F000000000700070000142D
:103250007F147F1400242A7F2A120062640813233B
:1032600000364955225000000503000000001C22D2
:103270004100000041221C000014083E0814000810
:10328000083E0808000000A06000000808080808C0
:10329000000060600000002010080402003E514958
:1032A000453E0000427F40000042615149460021F6
:1032B00041454B31001814127F1000274545453910
:1032C000003C4A494930000171090503003649496B
:1032D000493600064949291E000036360000000024
:1032E000563600000008142241000014141414146F
:1032F0000000412214080002015109060032495918
:10330000513E007C1211127C007F49494936003E33
:1033100041414122007F4141221C007F49494941EE
:10332000007F09090901003E4149497A007F0808E8
:10333000087F0000417F4100002040413F01007FA5
:1033400008142241007F40404040007F020C027F71
:10335000007F0408107F003E4141413E007F090983
:103360000906003E4151215E007F091929460046A9
:10337000494949310001017F0101003F4040403F80
:10338000001F2040201F003F4038403F00631408CA
:1033900014630007087008070061514945430000A5
:1033A0007F41410000552A552A55000041417F00C8
:1033B00000040201020400404040404000000102BD
:1033C0000400002054545478007F484444380038A6
:1033D0004444442000384444487F0038545454182E
:1033E00000087E0901020018A4A4A47C007F080440
:1033F00004780000447D4000004080847D00007F10
:10340000102844000000417F4000007C041804782C
:10341000007C0804047800384444443800FC242428
:1034200024180018242418FC007C08040408004810
:103430005454542000043F444020003C4040207C31
:10344000001C2040201C003C4030403C0044281020
:103450002844001CA0A0A07C004464544C441414D4
:10346000141414140000000000000000000000000C
:1034700000000000000000F8000000000000003321
:103480003000000000100C06100C060000000000C8
:103490000000000040C07840C0784000043F0404B1
:1034A0003F040400007088FC08300000001820FF72
:1034B000211E0000F008F000E018000000211C03AD
:1034C0001E211E0000F00888700000001E21232429
:1034D0001927211010160E00000000000000000047
:1034E00000000000000000E01804020000000007D7
:1034F0001820400000020418E000000000402018DE
:1035000007000000404080F0804040000202010FB0
:1035100001020200000000F0000000000101011F94
:1035200001010100000000000000000080B07000F8
:103530000000000000000000000000000001010188
:103540000101010100000000000000000030300017
:1035500000000000000000008060180400601806F1
:103560000100000000E010080810E000000F10202B
:1035700020100F00001010F8000000000020203F75
:1035800020200000007008080888700000302824FF
:1035900022213000003008888848300000182020A0
:1035A00020110E000000C02010F8000000070424C5
:1035B000243F240000F8088888080800001921200A
:1035C00020110E0000E0108888180000000F112064
:1035D00020110E0000380808C83808000000003F1D
:1035E000000000000070880808887000001C22217C
:1035F00021221C0000E010080810E0000000312229
:1036000022110F00000000C0C000000000000030C8
:10361000300000000000008000000000000080601A
:10362000000000000000804020100800000102049B
:103630000810200040404040404040000404040482
:10364000040404000008102040800000002010083E
:1036500004020100007048080808F0000000003073
:1036600036010000C030C828E810E0000718272401
:1036700023140B000000C038E0000000203C2302AF
:103680000227382008F8888888700000203F202012
:1036900020110E00C0300808080838000718202044
:1036A0002010080008F808080810E000203F20203B
:1036B00020100F0008F88888E8081000203F20201C
:1036C0002320180008F88888E8081000203F200010
:1036D00003000000C0300808083800000718202048
:1036E000221E020008F808000008F808203F210107
:1036F00001213F20000808F8080800000020203FB2
:103700002020000000000808F8080800C080808021
:103710007F00000008F888C028180800203F20011A
:103720002638200008F8080000000000203F202074
:103730002020300008F8F800F8F80800203F003F8B
:10374000003F200008F830C00008F808203F2000A3
:1037500007183F00E01008080810E0000F102020B4
:1037600020100F0008F808080808F000203F210189
:1037700001010000E01008080810E0000F182424E0
:1037800038504F0008F8888888887000203F200053
:10379000030C302000708808080838000038202109
:1037A00021221C00180808F8080818000000203F13
:1037B0002000000008F808000008F808001F20207A
:1037C00020201F000878880000C83808000007384B
:1037D0000E010000F80800F80008F800033C07009C
:1037E000073C0300081868808068180820302C0304
:1037F000032C30200838C800C83808000000203FDB
:103800002000000010080808C838080020382621C9
:1038100020201800000000FE020202000000007FCD
:1038200040404000000C30C00000000000000001DB
:103830000638C00000020202FE00000000404040C6
:103840007F000000000004020202040000000000EB
:103850000000000000000000000000008080808068
:103860008080808000020204000000000000000050
:1038700000000000000080808080000000192422E9
:1038800022223F2008F8008080000000003F112025
:1038900020110E000000008080800000000E11202A
:1038A00020201100000000808088F800000E112008
:1038B00020103F200000808080800000001F222216
:1038C00022221300008080F0888888180020203F82
:1038D000202000000000808080808000006B949495
:1038E0009493600008F8008080800000203F210051
:1038F00000203F2000809898000000000020203F1A
:1039000020200000000000809898000000C0808007
:10391000807F000008F8000080808000203F2402A3
:103920002D302000000808F8000000000020203F93
:10393000202000008080808080808000203F200048
:103940003F20003F8080008080800000203F2100D9
:1039500000203F200000808080800000001F202089
:1039600020201F00808000808000000080FFA120B8
:1039700020110E000000008080808000000E1120C9
:1039800020A0FF80808080008080800020203F2158
:10399000200001000000808080808000003324240B
:1039A00024241900008080E0808000000000001FB7
:1039B000202000008080000000808000001F202068
:1039C00020103F20808080000080808000010E3029
:1039D0000806010080800080008080800F300C038A
:1039E0000C300F0000808000808080000020312E8D
:1039F0000E312000808080000080808080818E7069
:103A00001806010000808080808080000021302C1A
:103A10002221300000000000807C02020000000033
:103A2000003F404000000000FF00000000000000D8
:103A3000FF0000000002027C800000000040403FC8
:103A40000000000000060101020204040000000062
:103A50000000000000000000010203040102030452
:083A600006070809100500200B
:083A680039310008BD0200081D
:043A700099020008AF
:103A74000000000000000000000000000000000042
:103A84000000000000000000000000000000000032
:103A94000000000000000000808000DCE4F8799D54
:103AA400EDF6E7CD3DFBF0CC1CB480000080008037
:103AB4000000000000000000808000DCECF07DBD10
:103AC400EEF6762E1D7DF8F4DC2860E0C0000000E0
:103AD40000000000000000000000000000000000E2
:103AE40000000000000000000000000000000000D2
:103AF40000000000000000000000000000000000C2
:103B040000000000000000000000000080000080B1
:103B1400A0C0C0E8686870B7397E4F071B1C3F031C
:103B24000303070300030707060606060606060640
:103B3400060606060606060606060707070D0E0015
:103B4400000000000038331F3F3E30367E68E8C86E
:103B5400D0C0A0A000808080000000000000000011
:103B64000000000000000000000000000000000051
:103B74000000000000000000000000000000000041
:103B84000000000000D4789CE0FAFC1CCE071B1B4C
:103B94000D01001062606161E0E0E0A0F0F0F0006F
:103BA4000000160E1C1C1C1C1E020000586C989869
:103BB400F8F8F8981878FC7E7E621C5C5C5C5CFA11
:103BC400EEBEFAB060606060606060606161F3F0F6
:103BD400A4050753776E1E3DFAF6CE0000000000E0
:103BE40000000000000000000000000000000000D1
:103BF40000000000000000000000000000000000C1
:103C040000000000003B7C330FBF7F71EFD0B0B0E9
:103C1400370707038303830305010505050607002A
:103C24000000000000161F1F1816060717030305DF
:103C3400050505030303031616160F000000000014
:103C440000000706030303030306161616961F1F38
:103C54005D404098DCECF078BFDFE7000000000036
:103C64000000000000000000000000000000000050
:103C74000000000000000000000000000000000040
:103C8400000000000000000000000000000101032B
:103C94000B07062E2C2D1D5A98BC34B030B0E0E032
:103CA40068B0900000000000000000000000000068
:103CB4000000000000000000000000000000000000
:103CC4000000F8F008F0F0F0B0181A181C2D2D3E82
:103CD40036170B3B050F0E0F00000000000000001C
:103CE40000000000000000000000000000000000D0
:103CF40000000000000000000000000000000000C0
:103D040000000000000000000000000000000000AF
:103D14000000000000000000000002F8FFFF0FC1D7
:103D2400C68F060000207020700000000000000014
:103D3400000000000000000000000000000000007F
:103D44000000000000B887FFFFF800F8F80000004A
:103D5400000000000000000000000000000000005F
:103D6400000000000000000000000000000000004F
:103D7400000000000000000000000000000000003F
:103D8400000000000000000000000000000000002F
:103D940000000000F8F8F88480808080808185F934
:103DA400F8F8070747A7B0D0C0504040C0C0C09043
:103DB4007030F0D0D0D0D0D040D03090D0D050504F
:103DC4004040C0C0800101010000010105FCFC0865
:103DD40000000000000000000000000000000000DF
:103DE40000000000000000000000000000000000CF
:103DF40000000000000000000000000000000000BF
:103E040000000000000000000000000000000000AE
:103E1400000000001F1F1F21010101010101011FFA
:103E24001F1F000C002F2F1F1B1B1313131B1B1B07
:103E340022203F1F1F1F211E0E000F0F1F1A1B13CE
:103E440013131B1B1B2B0000000C0004383F3F0006
:103E5400040000000000000000000000000000005A
:103E6400000000000000000000000000000000004E
:103E74000000FE1292B2D2929292D2B29E00000040
:103E840040300F0484641F040404FF04040400008D
:103E9400000202FAAAAFAAAAAAAFAAFA0202000072
:103EA40012120A7E0A0B0AFE0A2A4A3E0A1212005B
:103EB4001060028C00FE02F202FE00F800FF000017
:103EC40004047E018047300F10270047807F0000E4
:103ED400404042CC009090909090FF10111610003A
:103EE4000000003F1028603F1010010E3040F00029
:103EF4004042CC0000445454547F54545444400031
:103F040000007F201000FF15151555957F00000057
:103F140020222A2AAA6A3A2E29292929292020007E
:103F240008040201FF555555555555FF0000000082
:103F340000FE024222325E925232120202FE00005F
:103F440000FF4242425155646941424242FF00002F
:103F5400000000FE20202020203F20202020000000
:103F64000080601F020202020202FE000000000044
:103F74000090D0030090D003010000001000000066
:103F840000000000FC07002064080020CC0800208A
:103F9400000000000000000000000000000000001D
:103FA400000000000000000000000000000000000D
:103FB40000000000000000000000000000000000FD
:103FC40000000000000000000000000000000000ED
:103FD40000000000000000000000000000000000DD
:103FE40000000000000000000000000000000000CD
:103FF40000000000000000000000000000000000BD
:1040040000000000000000000000000000000000AC
:10401400000000000000000000000000000000009C
:10402400000000000000000001000000000000008B
:104034000E33CDAB34126DE6ECDE05000B00000050
:10404400000000000000000000000000000000006C
:10405400000000000000000000000000000000005C
:10406400000000000000000000000000000000004C
:10407400000000000000000000000000000000003C
:0C43A4000000000000000000A80900203C
:0400000508002FF9C7
:00000001FF
