:020000040800F2
:1000000000000220B119000865090008670900080E
:10001000690900086B0900086D090008000000006C
:100020000000000000000000000000006F09000850
:100030007109000800000000730900087509000834
:10004000011A0008011A0008011A0008011A000824
:10005000011A0008011A0008011A0008011A000814
:10006000011A0008011A0008011A0008011A000804
:10007000011A0008011A0008011A0008011A0008F4
:10008000011A0008011A0008011A0008011A0008E4
:10009000011A0008011A0008011A0008011A0008D4
:1000A000011A0008011A0008011A0008011A0008C4
:1000B000011A0008011A0008011A0008011A0008B4
:1000C000011A0008011A0008011A0008011A0008A4
:1000D000011A0008011A0008011A0008011A000894
:1000E000011A0008011A000800000000011A0008A7
:1000F000011A0008011A0008011A0008011A000874
:10010000011A0008011A0008011A0008011A000863
:10011000011A0008011A0008011A0008011A000853
:10012000011A0008011A0008011A0008011A000843
:10013000011A0008011A0008011A0008011A000833
:1001400000000000000000000000000000000000AF
:10015000011A0008011A0008011A0008011A000813
:10016000011A0008011A0008011A0008011A000803
:10017000011A0008011A0008011A0008011A0008F3
:10018000011A0008011A0008011A0008011A0008E3
:10019000011A0008011A0008011A0008011A0008D3
:1001A000011A0008011A0008011A0008011A0008C3
:1001B000011A0008011A0008011A0008011A0008B3
:1001C000011A0008011A0008011A0008011A0008A3
:1001D000011A0008011A0008011A0008011A000893
:1001E000011A0008011A0008011A0008011A000883
:1001F000011A0008011A0008011A0008011A000873
:10020000011A0008011A0008011A0008011A000862
:10021000011A0008011A0008011A0008011A000852
:10022000011A0008011A0008011A00080000000065
:10023000011A0008011A000800000000011A000855
:10024000011A0008011A0008011A0008011A000822
:10025000011A0008011A0008011A0008011A000812
:10026000011A0008011A0008011A0008011A000802
:10027000011A0008011A0008011A00080000000015
:10028000011A0008011A0008011A00080000000005
:0802900000000000011A000843
:1002980010B5054C237833B9044B13B10448AFF3B8
:1002A80000800123237010BD3C04002000000000E2
:1002B800D01B000808B5034B1BB103490348AFF333
:1002C800008008BD0000000040040020D01B00088A
:1002D80080F0004002E000BF81F0004142001FBFF3
:1002E8005FEA410392EA030F7FEA226C7FEA236CFC
:1002F8006AD04FEA1262D2EB1363C1BFD2184140F1
:1003080048404140B8BF5B42192B88BF704710F086
:10031800004F40F4000020F07F4018BF404211F029
:10032800004F41F4000121F07F4118BF494292EA91
:10033800030F3FD0A2F1010241FA03FC10EB0C00BD
:10034800C3F1200301FA03F100F0004302D549424A
:1003580060EB4000B0F5000F13D3B0F1807F06D3F7
:1003680040084FEA310102F10102FE2A51D2B1F1EF
:10037800004F40EBC25008BF20F0010040EA0300E4
:100388007047490040EB0000013A28BFB0F5000F64
:10039800EDD2B0FA80FCACF1080CB2EB0C0200FA1A
:1003A8000CF0AABF00EBC25052421843BCBFD04069
:1003B8001843704792F0000F81F4000106BF80F4E3
:1003C80000000132013BB5E74FEA41037FEA226CA6
:1003D80018BF7FEA236C21D092EA030F04D092F071
:1003E800000F08BF0846704790EA010F1CBF0020A5
:1003F800704712F07F4F04D1400028BF40F0004002
:10040800704712F100723CBF00F50000704700F021
:10041800004343F0FE4040F4000070477FEA226248
:1004280016BF08467FEA23630146420206BF5FEA19
:10043800412390EA010F40F4800070474FF0000319
:1004480004E000BF10F0004348BF40425FEA000CE0
:1004580008BF704743F0964301464FF000001CE088
:1004680050EA010208BF70474FF000030AE000BFDE
:1004780050EA010208BF704711F0004302D540421C
:1004880061EB41015FEA010C02BF8446014600208E
:1004980043F0B64308BFA3F18053A3F50003BCFAA9
:1004A8008CF2083AA3EBC25310DB01FA02FC634456
:1004B80000FA02FCC2F12002BCF1004F20FA02F25D
:1004C80043EB020008BF20F00100704702F1200250
:1004D80001FA02FCC2F1200250EA4C0021FA02F2B1
:1004E80043EB020008BF20EADC7070474FF0FF0CB6
:1004F8001CEAD0521EBF1CEAD15392EA0C0F93EAB1
:100508000C0F6FD01A4480EA010C400218BF5FEA52
:1005180041211ED04FF0006343EA501043EA5111C5
:10052800A0FB01310CF00040B1F5000F3EBF4900BF
:1005380041EAD3715B0040EA010062F17F02FD2AC3
:100548001DD8B3F1004F40EBC25008BF20F00100A6
:10055800704790F0000F0CF0004C08BF49024CEABD
:10056800502040EA51207F3AC2BFD2F1FF0340EA4F
:10057800C250704740F400004FF00003013A5DDCC0
:1005880012F1190FDCBF00F000407047C2F1000201
:10059800410021FA02F1C2F1200200FA02FC5FEAEE
:1005A800310040F1000053EA4C0308BF20EADC7038
:1005B800704792F0000F00F0004C02BF400010F4AA
:1005C800000F013AF9D040EA0C0093F0000F01F057
:1005D800004C02BF490011F4000F013BF9D041EA79
:1005E8000C018FE70CEAD15392EA0C0F18BF93EA7B
:1005F8000C0F0AD030F0004C18BF31F0004CD8D1A5
:1006080080EA010000F00040704790F0000F17BF2B
:1006180090F0004F084691F0000F91F0004F14D071
:1006280092EA0C0F01D142020FD193EA0C0F03D1C9
:100638004B0218BF084608D180EA010000F00040CC
:1006480040F0FE4040F40000704740F0FE4040F4A7
:10065800400070474FF0FF0C1CEAD0521EBF1CEA46
:10066800D15392EA0C0F93EA0C0F69D0A2EB030264
:1006780080EA010C49024FEA402037D04FF08053FE
:1006880043EA111143EA10130CF000408B4238BFC3
:100698005B0042F17D024FF4000C8B4224BF5B1AD1
:1006A80040EA0C00B3EB510F24BFA3EB510340EA1F
:1006B8005C00B3EB910F24BFA3EB910340EA9C00CD
:1006C800B3EBD10F24BFA3EBD10340EADC001B013D
:1006D80018BF5FEA1C1CE0D1FD2A3FF650AF8B42E1
:1006E80040EBC25008BF20F0010070470CF0004CEE
:1006F8004CEA50207F32C2BFD2F1FF0340EAC25019
:10070800704740F400004FF00003013A37E792F0D9
:10071800000F00F0004C02BF400010F4000F013A37
:10072800F9D040EA0C0093F0000F01F0004C02BF32
:10073800490011F4000F013BF9D041EA0C0195E79B
:100748000CEAD15392EA0C0F08D142027FF47DAF34
:1007580093EA0C0F7FF470AF084676E793EA0C0F24
:1007680004D14B023FF44CAF08466EE730F0004C22
:1007780018BF31F0004CCAD130F000427FF45CAFB2
:1007880031F000437FF43CAF5FE700BF42000ED278
:10079800B2F1FE4F0BD34FF09E03B3EB126209D4B4
:1007A8004FEA002343F0004323FA02F070474FF06A
:1007B8000000704712F1610F01D1420202D14FF0DF
:1007C800FF3070474FF00000704700BF30B589B068
:1007D8000024039404940594069407941B4BD3F8BF
:1007E800E02042F01002C3F8E020D3F8E02002F045
:1007F80010020092009AD3F8E02042F00402C3F8F5
:10080800E020D3F8E02002F004020192019AD3F824
:10081800E02042F08002C3F8E020D3F8E03003F093
:1008280080030293029B0A4D22460821284600F0C5
:10083800F1FA08230393012304930594069403A96A
:10084800284600F0D3F909B030BD00BF0044025873
:100858000010025872B6FEE700B59DB04C22002188
:1008680009A801F0EFF82022002101A801F0EAF818
:10087800022000F0DFFA00230093244BDA6A22F00A
:100888000102DA62DB6A03F001030093204A9369EC
:1008980023F4404343F480439361936903F4404352
:1008A8000093009B1A4B9B6913F4005FFAD0012355
:1008B80009934FF480330A930223129313931493EA
:1008C8000C22159216931793189319921A934FF4B2
:1008D80080531B9309A800F0D7FA90B93F230193DE
:1008E800032302930023039304930593069307932A
:1008F8000893012101A800F00DFF20B91DB05DF893
:1009080004FBFFF7A7FFFFF7A5FF00BF000400588F
:100918000048025808B500F0B3F8FFF79DFFFFF74D
:1009280055FF0821034800F07BFA4FF4FA7000F0F5
:10093800E7F8F6E70010025882B0074BD3F8F42026
:1009480042F00202C3F8F420D3F8F43003F00203B3
:100958000193019B02B0704700440258FEE7FEE78E
:10096800FEE7FEE7FEE770477047704708B500F0FE
:10097800B5F808BD244B1B6803F00F03062B06D8F7
:10098800214A136823F00F0343F0070313601F4B3A
:100998001A6842F001021A6000221A6119681C4A9A
:1009A8000A401A60184B1B6813F0080F06D0164A45
:1009B800136823F00F0343F007031360134B00225F
:1009C8009A61DA611A62134999621349D962134923
:1009D80019635A639963DA6319645A64196821F4CC
:1009E800802119601A660E4B1A680E4B1340B3F13A
:1009F800005F03D20C4B0122C3F808210B4B43F2D2
:100A0800D2021A60704700BF00200052004402580A
:100A18007FEDF6EA000202020000FF0180020101F8
:100A28000010005C0000FFFF0080005100400052F1
:100A3800104B1B780BB90120704710B504464FF4D2
:100A48007A70B0FBF3F30C4A1068B0FBF3F000F0D7
:100A5800B9F868B90F2C01D901200AE00022214613
:100A68004FF0FF3000F078F8044B1C60002000E0E5
:100A7800012010BD08000020000000200C0000200C
:100A880010B5032000F056F800F038FD0F498B69C7
:100A9800C3F303230E4AD35C03F01F03D8408B69CA
:100AA80003F00F03D35C03F01F0320FA03F3094A92
:100AB8001360094B18600F20FFF7BAFF10B101242B
:100AC800204610BD0446FFF737FFF9E700440258F7
:100AD800E81B00080400002000000020034B1B78DE
:100AE800034A11680B441360704700BF08000020D8
:100AF80058040020014B1868704700BF58040020B4
:100B080038B50446FFF7F6FF0546B4F1FF3F02D0BB
:100B1800044B1B781C44FFF7EDFF401BA042FAD39F
:100B280038BD00BF08000020014B1868000C704752
:100B38000010005C0649CB6823F4E0631B041B0C1F
:100B4800000200F4E0600343024A1A43CA60704797
:100B580000ED00E00000FA0500B5174BDB68C3F3B1
:100B68000223C3F1070CBCF1040F28BF4FF0040C9B
:100B780003F1040EBEF1060F14D9033B4FF0FF3EFC
:100B88000EFA0CFC21EA0C0199400EFA03F322EA52
:100B980003031943002807DB0901C9B2074B19549D
:100BA8005DF804FB0023E9E700F00F000901C9B272
:100BB800034B1954F4E700BF00ED00E000E400E047
:100BC80014ED00E00138B0F1807F0BD24FF0E02344
:100BD8005861054AF02182F8231000209861072205
:100BE8001A6170470120704700ED00E070B582B0CF
:100BF80000236EE085685E000324B44025EA0405FE
:100C0800CC68B4402C438460446824EA0C0C4C68DB
:100C1800C4F300149C4044EA0C0444606CE0DD0812
:100C2800083550F8256003F007044FEA840C0F24B8
:100C380004FA0CF426EA040E0C6904FA0CF444EAEB
:100C48000E0440F825406FE0092400E0002404FA6F
:100C58000EF42C430CF1020C6B4D45F82C404FF070
:100C6800B0442568D44325EA0206D1F804C01CF430
:100C7800801F01D042EA05064FF0B0452E606D682E
:100C880004EA0506D1F804C01CF4001F01D042EAAA
:100C980005064FF0B0456E60D5F8845004EA0506A5
:100CA800D1F804C01CF4003F01D042EA05064FF019
:100CB800B045C5F88460D5F880502C404E6816F4CD
:100CC800803F01D042EA05044FF0B042C2F88040AC
:100CD80001330A6832FA03F400F093804FF0010CF4
:100CE8000CFA03FC1CEA0202F2D04C6804F003047C
:100CF800013C012C7FF67EAF4C6804F00304032C02
:100D08000CD0C4685D004FF0030C0CFA05FC24EA13
:100D18000C0C8C68AC4044EA0C04C4604C6804F0C9
:100D28000304022C3FF47BAF04684FEA430E4FF0F4
:100D3800030C0CFA0EFC24EA0C0C4C6804F00304B7
:100D480004FA0EF444EA0C0404604C6814F4403FBE
:100D5800BED02E4CD4F8F45045F00205C4F8F45037
:100D6800D4F8F44004F002040194019C4FEA930C77
:100D78000CF10205244C54F8255003F003044FEA03
:100D8800840E0F2404FA0EF425EA0405204CA04230
:100D98003FF45CAF04F58064A04222D004F580647F
:100DA800A04220D004F58064A0421ED004F58064DF
:100DB800A0421CD004F58064A0421AD004F58064D7
:100DC800A04218D004F58064A04216D004F58064CF
:100DD800A04214D004F58064A0423FF435AF0A2441
:100DE80035E7012433E7022431E703242FE70424FD
:100DF8002DE705242BE7062429E7072427E70824FD
:100E080025E702B070BD00BF000400580044025836
:100E1800000002580AB18161704709048161704776
:100E2800436901EA030221EA030141EA02418161BF
:100E380070470000134BDB6813F0040F07D1114B08
:100E4800DB6803F0070383421AD00120704710B50E
:100E58000C4AD36823F007031843D060FFF74AFE13
:100E68000446084B5B6813F4005F07D1FFF742FEA6
:100E7800001BB0F57A7FF4D9012000E0002010BDF6
:100E88000020704700480258002800F0188338B541
:100E98000446036813F0010F25D0944A136903F040
:100EA8003803926A102B15D0182B0FD06368B3F54E
:100EB800803F3FD0002B53D18C4B1A6822F48032EC
:100EC8001A601A6822F480221A6038E002F00302DD
:100ED800022AEBD1854B1B6813F4003F03D06368EB
:100EE800002B00F0EE82236813F0020F00F0A180BF
:100EF8007E4A1369926A13F038035AD0182B55D0DA
:100F0800E368002B00F0DE8078490A6822F01902B5
:100F180013430B60FFF7EEFD0546744B1B6813F097
:100F2800040F40F0AD80FFF7E5FD401B0228F4D91F
:100F38000320CDE26D4A136843F48033136063687D
:100F48002BB3FFF7D7FD0546684B1B6813F4003F2A
:100F5800C9D1FFF7CFFD401B6428F5D90320B7E2BC
:100F6800B3F5A02F09D0614B1A6822F480321A60B9
:100F78001A6822F480221A60E1E75C4B1A6842F48E
:100F880080221A601A6842F480321A60D7E7FFF7A5
:100F9800B1FD0546554B1B6813F4003FA3D0FFF77E
:100FA800A9FD401B6428F5D9032091E212F0030F34
:100FB800A6D14E4B1B6813F0040F03D0E368002B37
:100FC80000F08182494A136823F01903E1680B4352
:100FD8001360FFF78FFD0546444B1B6813F0040FA1
:100FE80006D1FFF787FD401B0228F5D903206FE2E1
:100FF800FFF79AFD41F20303984212D82269402A6A
:1010080007D03A494B6823F47C3343EA02334B60F8
:101018000FE0364A536823F47C3343F400335360BB
:1010280007E0324A536823F0FE43216943EA01632B
:101038005360236813F0100F00F088802B4A13695F
:1010480003F03803926A082B56D0182B50D0E36966
:10105800002B00F0B880254A136843F08003136022
:10106800FFF748FD0546214B1B6813F4807F40F0CD
:101078008880FFF73FFD401B0228F4D9032027E2B0
:10108800FFF752FD41F20303984212D82269402A21
:1010980007D016494B6823F47C3343EA02334B608C
:1010A800C7E7124A536823F47C3343F40033536090
:1010B800BFE70E4A536823F0FE43216943EA016300
:1010C8005360B6E7094A136823F001031360FFF77A
:1010D80011FD0546054B1B6813F0040FA9D0FFF757
:1010E80009FD401B0228F5D90320F1E1004402580C
:1010F80002F00302012AAAD1A14B1B6813F4807FD6
:1011080003D0E369802B40F0E081FFF70DFD41F249
:101118000303984212D8226A202A07D098494B68BC
:1011280023F0F84343EA82634B600FE0944A536824
:1011380023F0F84343F08043536007E0904AD368B4
:1011480023F07C53216A43EA0163D360236813F0D8
:10115800080F60D06369002B49D0894A536F43F068
:1011680001035367FFF7C6FC0546854B5B6F13F019
:10117800020F50D1FFF7BEFC401B0228F5D903200F
:10118800A6E1FFF7D1FC41F20303984212D8226A84
:10119800202A07D07A494B6823F0F84343EA826350
:1011A8004B60D3E7764A536823F0F84343F0804313
:1011B8005360CBE7724AD36823F07C53216A43EA31
:1011C8000163D360C2E76E4A136823F0800313609B
:1011D800FFF790FC05466A4B1B6813F4807FB5D077
:1011E800FFF788FC401B0228F5D9032070E1644A08
:1011F800536F23F001035367FFF77CFC0546604BF0
:101208005B6F13F0020F06D0FFF774FC401B022837
:10121800F5D903205CE1236813F0200F29D0A369D6
:101228009BB1574A136843F480531360FFF762FC7D
:101238000546534B1B6813F4005F1AD1FFF75AFC9D
:10124800401B0228F5D9032042E14D4A136823F4D4
:1012580080531360FFF74EFC0546494B1B6813F497
:10126800005F06D0FFF746FC401B0228F5D9032093
:101278002EE1236813F0040F21D1636A002B00F0DC
:1012880026813F4A126902F03802182A00F0EE80DF
:10129800022B79D03A4A136823F080731360FFF762
:1012A80029FC0446364B1B6813F0007F00F0DC80F5
:1012B800FFF720FC001B0228F4D9032008E1314A7B
:1012C800136843F480731360FFF714FC05462D4B35
:1012D8001B6813F4807F06D1FFF70CFC401B6428C1
:1012E800F5D90320F4E0A368012B0AD00BBB244BEB
:1012F8001A6F22F001021A671A6F22F004021A67A5
:1013080004E01F4A136F43F001031367A36833B364
:10131800FFF7F0FB05461A4B1B6F13F0020FACD119
:10132800FFF7E8FB401B41F288339842F3D90320CA
:10133800CEE0052B09D0124B1A6F22F001021A6772
:101348001A6F22F004021A67E0E70D4B1A6F42F099
:1013580004021A671A6F42F001021A67D6E7FFF70C
:10136800C9FB0546064B1B6F13F0020F85D0FFF72C
:10137800C1FB401B41F288339842F3D90320A7E010
:101388000044025800480258594A136823F08073F1
:101398001360FFF7AFFB0546554B1B6813F0007F42
:1013A80006D0FFF7A7FB401B0228F5D903208FE0E2
:1013B8004F4B996A4F4A0A40A16AE06A41EA001114
:1013C8000A439A62226B013AC2F30802616B01393F
:1013D800490289B20A43A16B0139090401F4FE01EB
:1013E8000A43E16B0139090601F0FE410A431A6319
:1013F800DA6A22F00102DA62596B3F4A0A40A16CAC
:1014080042EAC1025A63DA6A22F00C02216C0A43EA
:10141800DA62DA6A22F00202616C0A43DA62DA6A94
:1014280042F48032DA62DA6A42F40032DA62DA6A64
:1014380042F48022DA62DA6A42F00102DA621A6859
:1014480042F080721A60FFF755FB0446284B1B6870
:1014580013F0007F06D1FFF74DFB001B0228F5D9DA
:10146800032035E0002033E0002031E0204A916A73
:10147800106B012B2DD001F00303A26A93422AD1ED
:10148800C1F30511E36A994227D1C0F30802236B1F
:10149800013B9A4223D1C0F34622636B013B9A4237
:1014A8001FD1C0F30642A36B013B9A421BD1C0F384
:1014B8000660E36B013B984217D1002008E0012049
:1014C8007047012004E0012002E0012000E0002034
:1014D80038BD0120FCE70120FAE70120F8E70120E8
:1014E800F6E70120F4E70120F2E70120F0E700BF6A
:1014F800004402580CFCFFFF0700FFFFF8B57E4BC5
:101508001B6903F03803102B00F0F280182B10D061
:1015180013B17A4C2046F8BD774B1B6813F0200FA7
:1015280000F0E880744B1868C0F3C100744CC440E4
:10153800F0E7714B9D6A05F003059C6AC4F3051436
:10154800D86A00F001005B6BC3F3CC0303FB00F027
:10155800FEF774FF0646002CDCD0012D76D0022D54
:1015680000F0A4800DB32046FEF768FF01466548E9
:10157800FFF770F80446604B186BC0F30800FEF7DD
:101588005DFF05464FF064513046FEF7AFFF014658
:101598002846FEF7A3FE4FF07E51FEF79FFE014658
:1015A8002046FEF7A3FF044671E0534B1B6813F077
:1015B800200F29D0504F3B68C3F3C1035048D8408F
:1015C800FEF73CFF05462046FEF738FF0146284651
:1015D800FFF740F80446386BC0F30800FEF72EFF0B
:1015E80005464FF064513046FEF780FF0146284615
:1015F800FEF774FE4FF07E51FEF770FE014620465E
:10160800FEF774FF044642E02046FEF717FF014646
:101618003D48FFF71FF80446374B186BC0F3080026
:10162800FEF70CFF05464FF064513046FEF75EFFAB
:1016380001462846FEF752FE4FF07E51FEF74EFE59
:1016480001462046FEF752FF044620E02046FEF7FA
:10165800F5FE01462B48FEF7FDFF0446264B186BA6
:10166800C0F30800FEF7EAFE05464FF06451304625
:10167800FEF73CFF01462846FEF730FE4FF07E514C
:10168800FEF72CFE01462046FEF730FF04461A4BB3
:101698001B6BC3F34623581CFEF7D0FE01462046B9
:1016A800FEF7D8FFFFF772F8044633E72046FEF747
:1016B800C5FE01461548FEF7CDFF04460E4B186BD4
:1016C800C0F30800FEF7BAFE05464FF064513046F5
:1016D800FEF70CFF01462846FEF700FE4FF07E514C
:1016E800FEF7FCFD01462046FEF700FF0446CEE764
:1016F800074C0FE7024C0DE70044025800093D0073
:101708000090D0030024744A0024744C20BCBE4BC3
:1017180040787D01002800F0328170B50D460446FE
:101728009B4B1B6803F00F038B420BD2984A13683C
:1017380023F00F030B431360136803F00F038B426E
:1017480040F01F81236813F0040F0CD02269914BDD
:101758009B6903F070039A4205D98E498B6923F07F
:1017680070031A438A61236813F0080F0CD062696A
:10177800884BDB6903F070039A4205D98549CB6928
:1017880023F070031A43CA61236813F0100F0CD0BA
:10179800A269804BDB6903F4E0639A4205D97D496D
:1017A800CB6923F4E0631A43CA61236813F0200F5E
:1017B8000CD0E269774B1B6A03F070039A4205D993
:1017C80074490B6A23F070031A430A62236813F002
:1017D800020F0CD0E2686F4B9B6903F00F039A422B
:1017E80005D96C498B6923F00F031A438A61236872
:1017F80013F0010F41D0674A936923F47063A1681D
:101808000B4393616368022B0AD0032B27D0012B6B
:101818002CD0604A126812F0040F06D10120ADE006
:10182800126812F4003F00F0AE805A490A6922F0AB
:10183800070213430B61FFF75DF90646554B1B6919
:1018480003F038036268B3EBC20F16D0FFF752F902
:10185800801B41F288339842F0D903208EE04D4A2C
:10186800126812F0007FE0D1012087E0494A12682F
:1018780012F4807FD9D1012080E0236813F0020F91
:101888000CD0E268434B9B6903F00F039A4205D2E0
:1018980040498B6923F00F031A438A613C4B1B684C
:1018A80003F00F03AB420AD9394A136823F00F0338
:1018B8002B431360136803F00F03AB4265D1236811
:1018C80013F0040F0CD02269324B9B6903F07003AC
:1018D8009A4205D22F498B6923F070031A438A6113
:1018E800236813F0080F0CD062692A4BDB6903F0F8
:1018F80070039A4205D22749CB6923F070031A4333
:10190800CA61236813F0100F0CD0A269214BDB6960
:1019180003F4E0639A4205D21E49CB6923F4E063DD
:101928001A43CA61236813F0200F0CD0E269194BDF
:101938001B6A03F070039A4205D216490B6A23F01A
:1019480070031A430A62FFF7D9FD12498B69C3F382
:101958000323114AD35C03F01F03D8408B6903F0BB
:101968000F03D35C03F01F0320FA03F30B4A136041
:101978000B4B18600B4B1868FFF75AF870BD012025
:1019880070470120FAE70120F8E70120F6E700BFD9
:101998000020005200440258E81B00080400002000
:1019A800000000200C000020DFF834D0FEF7E2FF32
:1019B8000C480D490D4A002302E0D458C4500433A2
:1019C800C4188C42F9D30A4A0A4C002301E0136078
:1019D8000432A242FBD300F011F8FEF79BFF7047D8
:1019E80000000220000000203C040020081C000821
:1019F8003C04002060040020FEE7000070B50D4E96
:101A08000D4D761BB61006D0002455F8043B013462
:101A18009847A642F9D1094E094D761B00F0D4F833
:101A2800B61006D0002455F8043B01349847A64266
:101A3800F9D170BDFC1B0008FC1B0008041C000841
:101A4800FC1B0008830730B548D0541E002A3FD03D
:101A5800CAB2034601E0013C3AD303F8012B9D07C3
:101A6800F9D1032C2DD9CDB245EA05250F2C45EA2D
:101A7800054536D9A4F1100222F00F0C03F1200E0F
:101A8800E6444FEA121C03F1100242E9045542E908
:101A9800025510327245F8D10CF1010214F00C0F06
:101AA80003EB021204F00F0C13D0ACF1040323F083
:101AB80003030433134442F8045B9342FBD10CF054
:101AC80003042CB1CAB21C4403F8012B9C42FBD17D
:101AD80030BD64461346002CF4D1F9E7034614469A
:101AE800BFE71A46A446E0E7024B13B1024800F0EC
:101AF80005B8704700000000111B000800230146CC
:101B08001A46184600F01AB838B5084B084D5B1B42
:101B18009C1007D0043B1D44013C55F804399847F4
:101B2800002CF9D1BDE8384000F054B8081C000872
:101B3800041C0008704700BF704700BF2DE9F0473C
:101B4800DFF87CA00646DAF8000098460F46914672
:101B5800FFF7F0FF1B4B1B68D3F8484124B36568B7
:101B68001F2D26DC5EB96B1C0235DAF800006360B5
:101B780044F82570FFF7E0FF0020BDE8F08704EB8C
:101B880085010123C1F88890D4F88821AB401A4315
:101B9800022EC4F88821C1F80881E4D1D4F88C2138
:101BA8001343C4F88C31DEE703F5A674C3F8484143
:101BB800D5E7DAF80000FFF7BFFF4FF0FF30DCE7AA
:101BC80038040020F81B0008F8B500BFF8BC08BCB2
:101BD8009E467047F8B500BFF8BC08BC9E467047E3
:101BE80000000000010203040102030406070809BB
:041BF80010000020B9
:081BFC00F11A0008BD02000807
:041C04009902000839
:101C08000090D0030090D0030100000010000000F5
:101C180000000000FC02002064030020CC03002028
:101C280000000000000000000000000000000000AC
:101C3800000000000000000000000000000000009C
:101C4800000000000000000000000000000000008C
:101C5800000000000000000000000000000000007C
:101C6800000000000000000000000000000000006C
:101C7800000000000000000000000000000000005C
:101C8800000000000000000000000000000000004C
:101C9800000000000000000000000000000000003C
:101CA800000000000000000000000000000000002C
:101CB800000000000000000001000000000000001B
:101CC8000E33CDAB34126DE6ECDE05000B000000E0
:101CD80000000000000000000000000000000000FC
:101CE80000000000000000000000000000000000EC
:101CF80000000000000000000000000000000000DC
:101D080000000000000000000000000000000000CB
:0C20380000000000000000005C0400201C
:04000005080019B125
:00000001FF
